{
  "contractName": "CryptoBridge",
  "abi": [
    {
      "anonymous": false,
      "inputs": [
        {
          "indexed": true,
          "internalType": "uint256",
          "name": "donorId",
          "type": "uint256"
        },
        {
          "indexed": false,
          "internalType": "string",
          "name": "identification",
          "type": "string"
        },
        {
          "indexed": false,
          "internalType": "uint256",
          "name": "amount",
          "type": "uint256"
        },
        {
          "indexed": false,
          "internalType": "string",
          "name": "message",
          "type": "string"
        }
      ],
      "name": "DonationReceived",
      "type": "event"
    },
    {
      "anonymous": false,
      "inputs": [
        {
          "indexed": false,
          "internalType": "string",
          "name": "identification",
          "type": "string"
        }
      ],
      "name": "FundRaisingCreated",
      "type": "event"
    },
    {
      "anonymous": false,
      "inputs": [
        {
          "indexed": true,
          "internalType": "address",
          "name": "retriever",
          "type": "address"
        },
        {
          "indexed": false,
          "internalType": "string",
          "name": "identification",
          "type": "string"
        },
        {
          "indexed": false,
          "internalType": "uint256",
          "name": "amount",
          "type": "uint256"
        }
      ],
      "name": "FundsRetrieved",
      "type": "event"
    },
    {
      "constant": false,
      "inputs": [
        {
          "internalType": "string",
          "name": "identification",
          "type": "string"
        },
        {
          "internalType": "string",
          "name": "imgpath",
          "type": "string"
        }
      ],
      "name": "createFundRaising",
      "outputs": [],
      "payable": false,
      "stateMutability": "nonpayable",
      "type": "function"
    },
    {
      "constant": false,
      "inputs": [
        {
          "internalType": "string",
          "name": "identification",
          "type": "string"
        }
      ],
      "name": "openFundRaising",
      "outputs": [],
      "payable": false,
      "stateMutability": "nonpayable",
      "type": "function"
    },
    {
      "constant": false,
      "inputs": [
        {
          "internalType": "string",
          "name": "identification",
          "type": "string"
        }
      ],
      "name": "closeDonations",
      "outputs": [],
      "payable": false,
      "stateMutability": "nonpayable",
      "type": "function"
    },
    {
      "constant": false,
      "inputs": [
        {
          "internalType": "string",
          "name": "identification",
          "type": "string"
        },
        {
          "internalType": "string",
          "name": "message",
          "type": "string"
        }
      ],
      "name": "donate",
      "outputs": [],
      "payable": true,
      "stateMutability": "payable",
      "type": "function"
    },
    {
      "constant": true,
      "inputs": [],
      "name": "getAmountOfFundRaisings",
      "outputs": [
        {
          "internalType": "uint256",
          "name": "",
          "type": "uint256"
        }
      ],
      "payable": false,
      "stateMutability": "view",
      "type": "function"
    },
    {
      "constant": true,
      "inputs": [],
      "name": "getAmountOfMyFundRaisings",
      "outputs": [
        {
          "internalType": "uint256",
          "name": "",
          "type": "uint256"
        }
      ],
      "payable": false,
      "stateMutability": "view",
      "type": "function"
    },
    {
      "constant": true,
      "inputs": [
        {
          "internalType": "uint256",
          "name": "fundraiseid",
          "type": "uint256"
        }
      ],
      "name": "getNameOfMyFundRaise",
      "outputs": [
        {
          "internalType": "string",
          "name": "",
          "type": "string"
        },
        {
          "internalType": "uint256",
          "name": "",
          "type": "uint256"
        }
      ],
      "payable": false,
      "stateMutability": "view",
      "type": "function"
    },
    {
      "constant": true,
      "inputs": [
        {
          "internalType": "string",
          "name": "identification",
          "type": "string"
        }
      ],
      "name": "getFundRaising",
      "outputs": [
        {
          "internalType": "uint256",
          "name": "",
          "type": "uint256"
        },
        {
          "internalType": "uint256",
          "name": "",
          "type": "uint256"
        },
        {
          "internalType": "bool",
          "name": "",
          "type": "bool"
        }
      ],
      "payable": false,
      "stateMutability": "view",
      "type": "function"
    },
    {
      "constant": true,
      "inputs": [
        {
          "internalType": "string",
          "name": "identification",
          "type": "string"
        },
        {
          "internalType": "uint256",
          "name": "donorId",
          "type": "uint256"
        }
      ],
      "name": "getDonor",
      "outputs": [
        {
          "internalType": "uint256",
          "name": "",
          "type": "uint256"
        },
        {
          "internalType": "string",
          "name": "",
          "type": "string"
        },
        {
          "internalType": "uint256",
          "name": "",
          "type": "uint256"
        }
      ],
      "payable": false,
      "stateMutability": "view",
      "type": "function"
    },
    {
      "constant": false,
      "inputs": [
        {
          "internalType": "string",
          "name": "identification",
          "type": "string"
        }
      ],
      "name": "withdrawFunds",
      "outputs": [],
      "payable": false,
      "stateMutability": "nonpayable",
      "type": "function"
    }
  ],
  "bytecode": "0x608060405234801561001057600080fd5b50612537806100206000396000f3fe6080604052600436106100915760003560e01c8063b50a3bab11610059578063b50a3bab14610592578063b5291045146105bd578063b71aa3f114610716578063c650f851146107de578063d71ae0c01461080957610091565b806303b86b5a146100965780631653441c1461015e5780631e3afb0c146102b0578063a8535a001461040f578063a9e4d608146104ca575b600080fd5b3480156100a257600080fd5b5061015c600480360360208110156100b957600080fd5b81019080803590602001906401000000008111156100d657600080fd5b8201836020820111156100e857600080fd5b8035906020019184600183028401116401000000008311171561010a57600080fd5b91908080601f016020809104026020016040519081016040528093929190818152602001838380828437600081840152601f19601f8201169050808301925050505050505091929192905050506108f7565b005b6102ae6004803603604081101561017457600080fd5b810190808035906020019064010000000081111561019157600080fd5b8201836020820111156101a357600080fd5b803590602001918460018302840111640100000000831117156101c557600080fd5b91908080601f016020809104026020016040519081016040528093929190818152602001838380828437600081840152601f19601f8201169050808301925050505050505091929192908035906020019064010000000081111561022857600080fd5b82018360208201111561023a57600080fd5b8035906020019184600183028401116401000000008311171561025c57600080fd5b91908080601f016020809104026020016040519081016040528093929190818152602001838380828437600081840152601f19601f820116905080830192505050505050509192919290505050610d32565b005b3480156102bc57600080fd5b5061040d600480360360408110156102d357600080fd5b81019080803590602001906401000000008111156102f057600080fd5b82018360208201111561030257600080fd5b8035906020019184600183028401116401000000008311171561032457600080fd5b91908080601f016020809104026020016040519081016040528093929190818152602001838380828437600081840152601f19601f8201169050808301925050505050505091929192908035906020019064010000000081111561038757600080fd5b82018360208201111561039957600080fd5b803590602001918460018302840111640100000000831117156103bb57600080fd5b91908080601f016020809104026020016040519081016040528093929190818152602001838380828437600081840152601f19601f8201169050808301925050505050505091929192905050506111d1565b005b34801561041b57600080fd5b506104486004803603602081101561043257600080fd5b8101908080359060200190929190505050611863565b6040518080602001838152602001828103825284818151815260200191508051906020019080838360005b8381101561048e578082015181840152602081019050610473565b50505050905090810190601f1680156104bb5780820380516001836020036101000a031916815260200191505b50935050505060405180910390f35b3480156104d657600080fd5b50610590600480360360208110156104ed57600080fd5b810190808035906020019064010000000081111561050a57600080fd5b82018360208201111561051c57600080fd5b8035906020019184600183028401116401000000008311171561053e57600080fd5b91908080601f016020809104026020016040519081016040528093929190818152602001838380828437600081840152601f19601f820116905080830192505050505050509192919290505050611a7e565b005b34801561059e57600080fd5b506105a7611d5d565b6040518082815260200191505060405180910390f35b3480156105c957600080fd5b5061068d600480360360408110156105e057600080fd5b81019080803590602001906401000000008111156105fd57600080fd5b82018360208201111561060f57600080fd5b8035906020019184600183028401116401000000008311171561063157600080fd5b91908080601f016020809104026020016040519081016040528093929190818152602001838380828437600081840152601f19601f82011690508083019250505050505050919291929080359060200190929190505050611da7565b6040518084815260200180602001838152602001828103825284818151815260200191508051906020019080838360005b838110156106d95780820151818401526020810190506106be565b50505050905090810190601f1680156107065780820380516001836020036101000a031916815260200191505b5094505050505060405180910390f35b34801561072257600080fd5b506107dc6004803603602081101561073957600080fd5b810190808035906020019064010000000081111561075657600080fd5b82018360208201111561076857600080fd5b8035906020019184600183028401116401000000008311171561078a57600080fd5b91908080601f016020809104026020016040519081016040528093929190818152602001838380828437600081840152601f19601f820116905080830192505050505050509192919290505050611f67565b005b3480156107ea57600080fd5b506107f3612245565b6040518082815260200191505060405180910390f35b34801561081557600080fd5b506108cf6004803603602081101561082c57600080fd5b810190808035906020019064010000000081111561084957600080fd5b82018360208201111561085b57600080fd5b8035906020019184600183028401116401000000008311171561087d57600080fd5b91908080601f016020809104026020016040519081016040528093929190818152602001838380828437600081840152601f19601f82011690508083019250505050505050919291929050505061224e565b6040518084815260200183815260200182151515158152602001935050505060405180910390f35b6000815111610951576040517f08c379a00000000000000000000000000000000000000000000000000000000081526004018080602001828103825260228152602001806124146022913960400191505060405180910390fd5b6003816040518082805190602001908083835b602083106109875780518252602082019150602081019050602083039250610964565b6001836020036101000a038019825116818451168082178552505050505050905001915050908152602001604051809103902060000160009054906101000a900473ffffffffffffffffffffffffffffffffffffffff1673ffffffffffffffffffffffffffffffffffffffff163373ffffffffffffffffffffffffffffffffffffffff1614610a61576040517f08c379a000000000000000000000000000000000000000000000000000000000815260040180806020018281038252602381526020018061248f6023913960400191505060405180910390fd5b60006003826040518082805190602001908083835b60208310610a995780518252602082019150602081019050602083039250610a76565b6001836020036101000a03801982511681845116808217855250505050505090500191505090815260200160405180910390206002015411610b43576040517f08c379a000000000000000000000000000000000000000000000000000000000815260040180806020018281038252601c8152602001807f54686572652773206e6f2066756e647320746f2072657472696576650000000081525060200191505060405180910390fd5b60006003826040518082805190602001908083835b60208310610b7b5780518252602082019150602081019050602083039250610b58565b6001836020036101000a038019825116818451168082178552505050505050905001915050908152602001604051809103902060020154905060003390508073ffffffffffffffffffffffffffffffffffffffff166108fc839081150290604051600060405180830381858888f19350505050158015610bff573d6000803e3d6000fd5b5060006003846040518082805190602001908083835b60208310610c385780518252602082019150602081019050602083039250610c15565b6001836020036101000a0380198251168184511680821785525050505050509050019150509081526020016040518091039020600201819055503373ffffffffffffffffffffffffffffffffffffffff167f949fa8c23075761d583703ca2157d38536172f536f30113854026c25ba3e2e9e84846040518080602001838152602001828103825284818151815260200191508051906020019080838360005b83811015610cf2578082015181840152602081019050610cd7565b50505050905090810190601f168015610d1f5780820380516001836020036101000a031916815260200191505b50935050505060405180910390a2505050565b60003411610d8b576040517f08c379a000000000000000000000000000000000000000000000000000000000815260040180806020018281038252602b8152602001806123e9602b913960400191505060405180910390fd5b6000825111610de5576040517f08c379a00000000000000000000000000000000000000000000000000000000081526004018080602001828103825260228152602001806124146022913960400191505060405180910390fd5b6003826040518082805190602001908083835b60208310610e1b5780518252602082019150602081019050602083039250610df8565b6001836020036101000a038019825116818451168082178552505050505050905001915050908152602001604051809103902060040160009054906101000a900460ff16610ed1576040517f08c379a00000000000000000000000000000000000000000000000000000000081526004018080602001828103825260158152602001807f46756e6472616973696e6720697320636c6f736564000000000000000000000081525060200191505060405180910390fd5b60006003836040518082805190602001908083835b60208310610f095780518252602082019150602081019050602083039250610ee6565b6001836020036101000a0380198251168184511680821785525050505050509050019150509081526020016040518091039020905060006001826003015401905080826006016000838152602001908152602001600020600001819055503482600601600083815260200190815260200160002060010181905550346003856040518082805190602001908083835b60208310610fbb5780518252602082019150602081019050602083039250610f98565b6001836020036101000a038019825116818451168082178552505050505050905001915050908152602001604051809103902060010160008282540192505081905550346003856040518082805190602001908083835b602083106110355780518252602082019150602081019050602083039250611012565b6001836020036101000a0380198251168184511680821785525050505050509050019150509081526020016040518091039020600201600082825401925050819055508282600601600083815260200190815260200160002060020190805190602001906110a4929190612343565b508160030160008154809291906001019190505550807fb18becd5c4053355c119c6fbf7aae3e0747642f93ae871c70cb2c16001d1fe31853486604051808060200184815260200180602001838103835286818151815260200191508051906020019080838360005b8381101561112857808201518184015260208101905061110d565b50505050905090810190601f1680156111555780820380516001836020036101000a031916815260200191505b50838103825284818151815260200191508051906020019080838360005b8381101561118e578082015181840152602081019050611173565b50505050905090810190601f1680156111bb5780820380516001836020036101000a031916815260200191505b509550505050505060405180910390a250505050565b600082511161122b576040517f08c379a00000000000000000000000000000000000000000000000000000000081526004018080602001828103825260228152602001806124146022913960400191505060405180910390fd5b600015156004836040518082805190602001908083835b602083106112655780518252602082019150602081019050602083039250611242565b6001836020036101000a038019825116818451168082178552505050505050905001915050908152602001604051809103902060009054906101000a900460ff161515146112fe576040517f08c379a00000000000000000000000000000000000000000000000000000000081526004018080602001828103825260388152602001806124366038913960400191505060405180910390fd5b600260003373ffffffffffffffffffffffffffffffffffffffff1673ffffffffffffffffffffffffffffffffffffffff168152602001908152602001600020600001600081548092919060010191905055506000600260003373ffffffffffffffffffffffffffffffffffffffff1673ffffffffffffffffffffffffffffffffffffffff16815260200190815260200160002060000154905082600260003373ffffffffffffffffffffffffffffffffffffffff1673ffffffffffffffffffffffffffffffffffffffff168152602001908152602001600020600101600083815260200190815260200160002090805190602001906113fe929190612343565b50336003846040518082805190602001908083835b602083106114365780518252602082019150602081019050602083039250611413565b6001836020036101000a038019825116818451168082178552505050505050905001915050908152602001604051809103902060000160006101000a81548173ffffffffffffffffffffffffffffffffffffffff021916908373ffffffffffffffffffffffffffffffffffffffff16021790555060006003846040518082805190602001908083835b602083106114e257805182526020820191506020810190506020830392506114bf565b6001836020036101000a03801982511681845116808217855250505050505090500191505090815260200160405180910390206001018190555060006003846040518082805190602001908083835b602083106115545780518252602082019150602081019050602083039250611531565b6001836020036101000a03801982511681845116808217855250505050505090500191505090815260200160405180910390206002018190555060006003846040518082805190602001908083835b602083106115c657805182526020820191506020810190506020830392506115a3565b6001836020036101000a03801982511681845116808217855250505050505090500191505090815260200160405180910390206003018190555060016003846040518082805190602001908083835b602083106116385780518252602082019150602081019050602083039250611615565b6001836020036101000a038019825116818451168082178552505050505050905001915050908152602001604051809103902060040160006101000a81548160ff021916908315150217905550816003846040518082805190602001908083835b602083106116bc5780518252602082019150602081019050602083039250611699565b6001836020036101000a03801982511681845116808217855250505050505090500191505090815260200160405180910390206005019080519060200190611705929190612343565b5060016004846040518082805190602001908083835b6020831061173e578051825260208201915060208101905060208303925061171b565b6001836020036101000a038019825116818451168082178552505050505050905001915050908152602001604051809103902060006101000a81548160ff02191690831515021790555082600160008054815260200190815260200160002090805190602001906117b0929190612343565b5060008081548092919060010191905055507f277a1d10e49bd6b7733ce9bf56c9ffc900b2e686ba0e5276a82fdafd008bc161836040518080602001828103825283818151815260200191508051906020019080838360005b83811015611824578082015181840152602081019050611809565b50505050905090810190601f1680156118515780820380516001836020036101000a031916815260200191505b509250505060405180910390a1505050565b606060008083116118bf576040517f08c379a000000000000000000000000000000000000000000000000000000000815260040180806020018281038252602181526020018061246e6021913960400191505060405180910390fd5b600260003373ffffffffffffffffffffffffffffffffffffffff1673ffffffffffffffffffffffffffffffffffffffff16815260200190815260200160002060010160008481526020019081526020016000206003600260003373ffffffffffffffffffffffffffffffffffffffff1673ffffffffffffffffffffffffffffffffffffffff168152602001908152602001600020600101600086815260200190815260200160002060405180828054600181600116156101000203166002900480156119c25780601f106119a05761010080835404028352918201916119c2565b820191906000526020600020905b8154815290600101906020018083116119ae575b5050915050908152602001604051809103902060020154818054600181600116156101000203166002900480601f016020809104026020016040519081016040528092919081815260200182805460018160011615610100020316600290048015611a6e5780601f10611a4357610100808354040283529160200191611a6e565b820191906000526020600020905b815481529060010190602001808311611a5157829003601f168201915b5050505050915091509150915091565b6000815111611ad8576040517f08c379a00000000000000000000000000000000000000000000000000000000081526004018080602001828103825260228152602001806124146022913960400191505060405180910390fd5b6003816040518082805190602001908083835b60208310611b0e5780518252602082019150602081019050602083039250611aeb565b6001836020036101000a038019825116818451168082178552505050505050905001915050908152602001604051809103902060000160009054906101000a900473ffffffffffffffffffffffffffffffffffffffff1673ffffffffffffffffffffffffffffffffffffffff163373ffffffffffffffffffffffffffffffffffffffff1614611be8576040517f08c379a00000000000000000000000000000000000000000000000000000000081526004018080602001828103825260288152602001806124b26028913960400191505060405180910390fd5b6003816040518082805190602001908083835b60208310611c1e5780518252602082019150602081019050602083039250611bfb565b6001836020036101000a038019825116818451168082178552505050505050905001915050908152602001604051809103902060040160009054906101000a900460ff1615611cd5576040517f08c379a00000000000000000000000000000000000000000000000000000000081526004018080602001828103825260198152602001807f46756e642072616973696e6720616c7265616479206f70656e0000000000000081525060200191505060405180910390fd5b60016003826040518082805190602001908083835b60208310611d0d5780518252602082019150602081019050602083039250611cea565b6001836020036101000a038019825116818451168082178552505050505050905001915050908152602001604051809103902060040160006101000a81548160ff02191690831515021790555050565b6000600260003373ffffffffffffffffffffffffffffffffffffffff1673ffffffffffffffffffffffffffffffffffffffff16815260200190815260200160002060000154905090565b60006060600080855111611e06576040517f08c379a00000000000000000000000000000000000000000000000000000000081526004018080602001828103825260228152602001806124146022913960400191505060405180910390fd5b60006003866040518082805190602001908083835b60208310611e3e5780518252602082019150602081019050602083039250611e1b565b6001836020036101000a038019825116818451168082178552505050505050905001915050908152602001604051809103902090508060060160008681526020019081526020016000206000015481600601600087815260200190815260200160002060020182600601600088815260200190815260200160002060010154818054600181600116156101000203166002900480601f016020809104026020016040519081016040528092919081815260200182805460018160011615610100020316600290048015611f525780601f10611f2757610100808354040283529160200191611f52565b820191906000526020600020905b815481529060010190602001808311611f3557829003601f168201915b50505050509150935093509350509250925092565b6000815111611fc1576040517f08c379a00000000000000000000000000000000000000000000000000000000081526004018080602001828103825260228152602001806124146022913960400191505060405180910390fd5b6003816040518082805190602001908083835b60208310611ff75780518252602082019150602081019050602083039250611fd4565b6001836020036101000a038019825116818451168082178552505050505050905001915050908152602001604051809103902060000160009054906101000a900473ffffffffffffffffffffffffffffffffffffffff1673ffffffffffffffffffffffffffffffffffffffff163373ffffffffffffffffffffffffffffffffffffffff16146120d1576040517f08c379a00000000000000000000000000000000000000000000000000000000081526004018080602001828103825260298152602001806124da6029913960400191505060405180910390fd5b6003816040518082805190602001908083835b6020831061210757805182526020820191506020810190506020830392506120e4565b6001836020036101000a038019825116818451168082178552505050505050905001915050908152602001604051809103902060040160009054906101000a900460ff166121bd576040517f08c379a000000000000000000000000000000000000000000000000000000000815260040180806020018281038252601b8152602001807f46756e642072616973696e6720616c726561647920636c6f736564000000000081525060200191505060405180910390fd5b60006003826040518082805190602001908083835b602083106121f557805182526020820191506020810190506020830392506121d2565b6001836020036101000a038019825116818451168082178552505050505050905001915050908152602001604051809103902060040160006101000a81548160ff02191690831515021790555050565b60008054905090565b6000806000808451116122ac576040517f08c379a00000000000000000000000000000000000000000000000000000000081526004018080602001828103825260228152602001806124146022913960400191505060405180910390fd5b60006003856040518082805190602001908083835b602083106122e457805182526020820191506020810190506020830392506122c1565b6001836020036101000a03801982511681845116808217855250505050505090500191505090815260200160405180910390209050806001015481600301548260040160009054906101000a900460ff16935093509350509193909250565b828054600181600116156101000203166002900490600052602060002090601f016020900481019282601f1061238457805160ff19168380011785556123b2565b828001600101855582156123b2579182015b828111156123b1578251825591602001919060010190612396565b5b5090506123bf91906123c3565b5090565b6123e591905b808211156123e15760008160009055506001016123c9565b5090565b9056fe446f6e6174696f6e20616d6f756e742073686f756c642062652067726561746572207468616e207a65726f4964656e74696669636174696f6e2073686f756c64206e6f7420626520656d707479546865726520697320616c726561647920612066756e642072616973696e6720776974682074686174206964656e74696669636174696f6e46756e642072616973652069642073686f756c64206e6f7420626520656d7074794f6e6c79207468652063726561746f722063616e2072657472696576652066756e64734f6e6c79207468652063726561746f722063616e206f70656e20612066756e642072616973696e674f6e6c79207468652063726561746f722063616e20636c6f736520612066756e642072616973696e67a265627a7a723158201a6a466ea9752877d454af2489fd1a632a515c55eb2ad8a05f5b6446e070abfa64736f6c63430005100032",
  "source": "// SPDX-License-Identifier: MIT\npragma solidity ^0.5.0;\n\n\ncontract CryptoBridge {\n    //STRUCTS\n    struct FundRaising {\n        address creator;\n        uint256 totalAmount;\n        uint256 amountToRetrieve;\n        uint256 donorCount;\n        bool isOpen;\n        string img;\n        mapping(uint256 => Donor) donors;\n    }\n    \n    struct Donor {\n        uint256 donorId;\n        uint256 amount;\n        string message;\n    }\n\n    struct User {\n        uint256 fundraisingCount;\n        mapping(uint256 => string) fundraisings;\n    }\n\n    uint256 private amountoffundraisings;\n\n    //Mappings\n    mapping(uint256 => string) private fundRaisingsList;\n    mapping(address => User) private userFundraisings;\n    mapping(string => FundRaising) private fundraisings;\n    mapping(string => bool) private fundraisingExist;\n\n    //Events\n    event FundRaisingCreated(string identification);\n    event DonationReceived(uint256 indexed donorId, string identification, uint256 amount, string message);\n    event FundsRetrieved(address indexed retriever, string identification, uint256 amount);\n  \n    //Functions\n    //Creates a fund raising associate to caster, is open by default.\n    function createFundRaising(string memory identification, string memory imgpath) public {\n        require(bytes(identification).length > 0, \"Identification should not be empty\");\n        require(fundraisingExist[identification] == false, \"There is already a fund raising with that identification\");\n        \n        userFundraisings[msg.sender].fundraisingCount ++;\n        uint256 fundraisingCount = userFundraisings[msg.sender].fundraisingCount;\n        userFundraisings[msg.sender].fundraisings[fundraisingCount] = identification;\n\n        fundraisings[identification].creator = msg.sender;\n        fundraisings[identification].totalAmount = 0;\n        fundraisings[identification].amountToRetrieve = 0;\n        fundraisings[identification].donorCount = 0;\n        fundraisings[identification].isOpen = true;\n        fundraisings[identification].img = imgpath;\n        fundraisingExist[identification] = true;\n\n        fundRaisingsList[amountoffundraisings] = identification;\n        amountoffundraisings++;\n\n        emit FundRaisingCreated(identification);\n    }\n\n    //Opens the fund raising to enable it to receive donations\n    function openFundRaising(string memory identification) public  {\n        require(bytes(identification).length > 0, \"Identification should not be empty\");\n        require(msg.sender == fundraisings[identification].creator, \"Only the creator can open a fund raising\");\n        require(!fundraisings[identification].isOpen, \"Fund raising already open\");\n        fundraisings[identification].isOpen = true;\n    }\n\n    //Close the fund raising to disable it to receive donations. It can be reopened.\n    function closeDonations(string memory identification) public  {\n        require(bytes(identification).length > 0, \"Identification should not be empty\");\n        require(msg.sender == fundraisings[identification].creator, \"Only the creator can close a fund raising\");\n        require(fundraisings[identification].isOpen, \"Fund raising already closed\");\n        fundraisings[identification].isOpen = false;\n    }\n\n    //Donates to the fundraising [identification] an amount set in VALUE. \n    //In [message], a message can be left with the donation.\n    function donate(string memory identification, string memory message) public payable {\n        require(msg.value > 0, \"Donation amount should be greater than zero\");\n        require(bytes(identification).length > 0, \"Identification should not be empty\");\n        require(fundraisings[identification].isOpen, \"Fundraising is closed\");\n\n        FundRaising storage fundraising = fundraisings[identification];\n        uint256 donorId = fundraising.donorCount + 1;\n        fundraising.donors[donorId].donorId = donorId;\n        fundraising.donors[donorId].amount = msg.value;\n        fundraisings[identification].totalAmount += msg.value;\n        fundraisings[identification].amountToRetrieve += msg.value;\n        fundraising.donors[donorId].message = message;\n        fundraising.donorCount++;\n\n        emit DonationReceived(donorId, identification, msg.value, message);\n    }\n    \n    //Returns the amount of fund raisings stored in the contract.\n    function getAmountOfFundRaisings() public view returns (uint256) {\n        return (amountoffundraisings);\n    }\n\n    //Returns the amount of fund raisings associated to my account.\n    function getAmountOfMyFundRaisings() public view returns (uint256) {\n        return (userFundraisings[msg.sender].fundraisingCount);\n    }\n\n    //From 1 to the amount of fund raisings associated to the account, \n    //returns the name of the fundraise and the amount of funds to retrieve\n    function getNameOfMyFundRaise(uint256 fundraiseid) public view returns (string memory, uint256) {\n        require(fundraiseid > 0, \"Fund raise id should not be empty\");\n        return (userFundraisings[msg.sender].fundraisings[fundraiseid], fundraisings[userFundraisings[msg.sender].fundraisings[fundraiseid]].amountToRetrieve);\n    }\n\n    //given the name of any fund raising, it returns the amount of donors, \n    //the total amount of tokens donated and if it's open\n    function getFundRaising(string memory identification) public view returns (uint256, uint256, bool) {\n        require(bytes(identification).length > 0, \"Identification should not be empty\");\n        FundRaising storage fundraising = fundraisings[identification];\n        return (fundraising.totalAmount,fundraising.donorCount,fundraising.isOpen);\n    }\n\n    //Given a fund raising and a number of donor, it returns the amount donated and the message left\n    function getDonor(string memory identification, uint256 donorId) public view returns (uint256, string memory, uint256) {\n        require(bytes(identification).length > 0, \"Identification should not be empty\");\n        \n        FundRaising storage fundraising = fundraisings[identification];\n        return (fundraising.donors[donorId].donorId, fundraising.donors[donorId].message, fundraising.donors[donorId].amount);\n    }\n    \n    //Given the name of a fundraising (created by the account that queries,\n    //it withdraws the pending tokens stored in the contract. Balances are updated\n    function withdrawFunds(string memory identification) public {\n        require(bytes(identification).length > 0, \"Identification should not be empty\");\n        require(msg.sender == fundraisings[identification].creator, \"Only the creator can retrieve funds\");\n        require(fundraisings[identification].amountToRetrieve > 0 ,\"There's no funds to retrieve\");\n\n        uint256 amount = fundraisings[identification].amountToRetrieve;\n\n        address payable owner = msg.sender;\n\n        owner.transfer(amount); \n        fundraisings[identification].amountToRetrieve = 0;\n\n        emit FundsRetrieved(msg.sender, identification, amount);\n\n        \n    }\n}\n\n",
  "sourcePath": "/home/fede/Documentos/Code/Solidity/Sin curso/CryptoBridge/cryptobridge/src/contracts/CryptoBridge.sol",
  "compiler": {
    "name": "solc",
    "version": "0.5.16+commit.9c3226ce.Emscripten.clang"
  },
  "schemaVersion": "3.2.3",
  "updatedAt": "2023-06-20T23:01:15.008Z",
  "devdoc": {
    "methods": {}
  },
  "userdoc": {
    "methods": {}
  }
}