{
  "contractName": "CryptoBridge",
  "abi": [
    {
      "constant": true,
      "inputs": [
        {
          "internalType": "uint256",
          "name": "",
          "type": "uint256"
        }
      ],
      "name": "fundraisings",
      "outputs": [
        {
          "internalType": "uint256",
          "name": "id",
          "type": "uint256"
        },
        {
          "internalType": "string",
          "name": "imghash",
          "type": "string"
        },
        {
          "internalType": "string",
          "name": "description",
          "type": "string"
        },
        {
          "internalType": "uint256",
          "name": "tipAmount",
          "type": "uint256"
        },
        {
          "internalType": "address payable",
          "name": "author",
          "type": "address"
        }
      ],
      "payable": false,
      "stateMutability": "view",
      "type": "function"
    },
    {
      "constant": true,
      "inputs": [],
      "name": "name",
      "outputs": [
        {
          "internalType": "string",
          "name": "",
          "type": "string"
        }
      ],
      "payable": false,
      "stateMutability": "view",
      "type": "function"
    },
    {
      "constant": false,
      "inputs": [],
      "name": "createFundRaising",
      "outputs": [],
      "payable": false,
      "stateMutability": "nonpayable",
      "type": "function"
    }
  ],
  "bytecode": "0x60806040526040518060400160405280600c81526020017f43727970746f42726964676500000000000000000000000000000000000000008152506000908051906020019061004f929190610062565b5034801561005c57600080fd5b50610107565b828054600181600116156101000203166002900490600052602060002090601f016020900481019282601f106100a357805160ff19168380011785556100d1565b828001600101855582156100d1579182015b828111156100d05782518255916020019190600101906100b5565b5b5090506100de91906100e2565b5090565b61010491905b808211156101005760008160009055506001016100e8565b5090565b90565b61067d806101166000396000f3fe608060405234801561001057600080fd5b50600436106100415760003560e01c806306fdde03146100465780631a76e3f9146100c95780636562c3c91461021d575b600080fd5b61004e610227565b6040518080602001828103825283818151815260200191508051906020019080838360005b8381101561008e578082015181840152602081019050610073565b50505050905090810190601f1680156100bb5780820380516001836020036101000a031916815260200191505b509250505060405180910390f35b6100f5600480360360208110156100df57600080fd5b81019080803590602001909291905050506102c5565b6040518086815260200180602001806020018581526020018473ffffffffffffffffffffffffffffffffffffffff1673ffffffffffffffffffffffffffffffffffffffff168152602001838103835287818151815260200191508051906020019080838360005b8381101561017757808201518184015260208101905061015c565b50505050905090810190601f1680156101a45780820380516001836020036101000a031916815260200191505b50838103825286818151815260200191508051906020019080838360005b838110156101dd5780820151818401526020810190506101c2565b50505050905090810190601f16801561020a5780820380516001836020036101000a031916815260200191505b5097505050505050505060405180910390f35b61022561044b565b005b60008054600181600116156101000203166002900480601f0160208091040260200160405190810160405280929190818152602001828054600181600116156101000203166002900480156102bd5780601f10610292576101008083540402835291602001916102bd565b820191906000526020600020905b8154815290600101906020018083116102a057829003601f168201915b505050505081565b6001602052806000526040600020600091509050806000015490806001018054600181600116156101000203166002900480601f0160208091040260200160405190810160405280929190818152602001828054600181600116156101000203166002900480156103775780601f1061034c57610100808354040283529160200191610377565b820191906000526020600020905b81548152906001019060200180831161035a57829003601f168201915b505050505090806002018054600181600116156101000203166002900480601f0160208091040260200160405190810160405280929190818152602001828054600181600116156101000203166002900480156104155780601f106103ea57610100808354040283529160200191610415565b820191906000526020600020905b8154815290600101906020018083116103f857829003601f168201915b5050505050908060030154908060040160009054906101000a900473ffffffffffffffffffffffffffffffffffffffff16905085565b6040518060a00160405280600181526020016040518060400160405280600681526020017f616263313233000000000000000000000000000000000000000000000000000081525081526020016040518060400160405280600d81526020017f48656c6c6f2c20776f726c642100000000000000000000000000000000000000815250815260200160008152602001600073ffffffffffffffffffffffffffffffffffffffff16815250600160006001815260200190815260200160002060008201518160000155602082015181600101908051906020019061052f9291906105a3565b50604082015181600201908051906020019061054c9291906105a3565b506060820151816003015560808201518160040160006101000a81548173ffffffffffffffffffffffffffffffffffffffff021916908373ffffffffffffffffffffffffffffffffffffffff160217905550905050565b828054600181600116156101000203166002900490600052602060002090601f016020900481019282601f106105e457805160ff1916838001178555610612565b82800160010185558215610612579182015b828111156106115782518255916020019190600101906105f6565b5b50905061061f9190610623565b5090565b61064591905b80821115610641576000816000905550600101610629565b5090565b9056fea265627a7a723158207b8fcaa7dc054d14e61b235faa05246bdd18a8c62839c57589870b066ba9099664736f6c63430005100032",
  "source": "// SPDX-License-Identifier: MIT\npragma solidity ^0.5.0;\n\n\ncontract CryptoBridge {\n\n    //DESCOMENTAR SEGUN CURSO\n    string public name = \"CryptoBridge\";\n\n    //Stores FundRaising\n    mapping(uint => FundRaising) public fundraisings;\n\n    struct FundRaising {\n        uint id;\n        string imghash;\n        string description;\n        uint tipAmount;\n        address payable author;\n    }\n\n    //Creates FundRaising\n    function createFundRaising() public {\n        fundraisings[1] = FundRaising(1,'abc123','Hello, world!',0,address(0x0));\n    }\n\n    /*\n    //STRUCTS\n    struct FundRaising {\n        address creator;\n        uint256 totalAmount;\n        uint256 amountToRetrieve;\n        uint256 donorCount;\n        bool isOpen;\n        string img;\n        mapping(uint256 => Donor) donors;\n    }\n    \n    struct Donor {\n        uint256 donorId;\n        uint256 amount;\n        string message;\n    }\n\n    struct User {\n        uint256 fundraisingCount;\n        mapping(uint256 => string) fundraisings;\n    }\n\n    uint256 private amountoffundraisings;\n\n    //Mappings\n    mapping(uint256 => string) private fundRaisingsList;\n    mapping(address => User) private userFundraisings;\n    mapping(string => FundRaising) private fundraisings;\n    mapping(string => bool) private fundraisingExist;\n\n    //Events\n    event FundRaisingCreated(string identification, string imgpath);\n    event DonationReceived(uint256 indexed donorId, string identification, uint256 amount, string message);\n    event FundsRetrieved(address indexed retriever, string identification, uint256 amount);\n  \n    //Functions\n    //Creates a fund raising associate to caster, is open by default.\n    function createFundRaising(string memory identification, string memory imgpath) public {\n        require(bytes(identification).length > 0, \"Identification should not be empty\");\n        require(fundraisingExist[identification] == false, \"There is already a fund raising with that identification\");\n        \n        userFundraisings[msg.sender].fundraisingCount ++;\n        uint256 fundraisingCount = userFundraisings[msg.sender].fundraisingCount;\n        userFundraisings[msg.sender].fundraisings[fundraisingCount] = identification;\n\n        fundraisings[identification].creator = msg.sender;\n        fundraisings[identification].totalAmount = 0;\n        fundraisings[identification].amountToRetrieve = 0;\n        fundraisings[identification].donorCount = 0;\n        fundraisings[identification].isOpen = true;\n        fundraisings[identification].img = imgpath;\n        fundraisingExist[identification] = true;\n\n        fundRaisingsList[amountoffundraisings] = identification;\n        amountoffundraisings++;\n\n        emit FundRaisingCreated(identification,imgpath);\n    }\n\n    //Opens the fund raising to enable it to receive donations\n    function openFundRaising(string memory identification) public  {\n        require(bytes(identification).length > 0, \"Identification should not be empty\");\n        require(msg.sender == fundraisings[identification].creator, \"Only the creator can open a fund raising\");\n        require(!fundraisings[identification].isOpen, \"Fund raising already open\");\n        fundraisings[identification].isOpen = true;\n    }\n\n    //Close the fund raising to disable it to receive donations. It can be reopened.\n    function closeFundRaising(string memory identification) public  {\n        require(bytes(identification).length > 0, \"Identification should not be empty\");\n        require(msg.sender == fundraisings[identification].creator, \"Only the creator can close a fund raising\");\n        require(fundraisings[identification].isOpen, \"Fund raising already closed\");\n        fundraisings[identification].isOpen = false;\n    }\n\n    //Donates to the fundraising [identification] an amount set in VALUE. \n    //In [message], a message can be left with the donation.\n    function donate(string memory identification, string memory message) public payable {\n        require(msg.value > 0, \"Donation amount should be greater than zero\");\n        require(bytes(identification).length > 0, \"Identification should not be empty\");\n        require(fundraisings[identification].isOpen, \"Fundraising is closed\");\n\n        FundRaising storage fundraising = fundraisings[identification];\n        uint256 donorId = fundraising.donorCount + 1;\n        fundraising.donors[donorId].donorId = donorId;\n        fundraising.donors[donorId].amount = msg.value;\n        fundraisings[identification].totalAmount += msg.value;\n        fundraisings[identification].amountToRetrieve += msg.value;\n        fundraising.donors[donorId].message = message;\n        fundraising.donorCount++;\n\n        emit DonationReceived(donorId, identification, msg.value, message);\n    }\n    \n    //Returns the amount of fund raisings stored in the contract.\n    function getAmountOfFundRaisings() public view returns (uint256) {\n        return (amountoffundraisings);\n    }\n\n    //Returns the amount of fund raisings associated to my account.\n    function getAmountOfMyFundRaisings() public view returns (uint256) {\n        return (userFundraisings[msg.sender].fundraisingCount);\n    }\n\n    //From 1 to the amount of fund raisings associated to the account, \n    //returns the name of the fundraise and the amount of funds to retrieve\n    function getNameOfMyFundRaise(uint256 fundraiseid) public view returns (string memory, uint256) {\n        require(fundraiseid > 0, \"Fund raise id should not be empty\");\n        return (userFundraisings[msg.sender].fundraisings[fundraiseid], fundraisings[userFundraisings[msg.sender].fundraisings[fundraiseid]].amountToRetrieve);\n    }\n\n    //From 1 to the amount of all fund raisings, \n    //returns the name of the fundraise and the amount of funds to retrieve\n    function getNameOfFundRaise(uint256 fundraiseid) public view returns (string memory) {\n        require(fundraiseid > 0, \"Fund raise id should not be empty\");\n        return (fundRaisingsList[fundraiseid]);\n    }\n\n    //given the name of any fund raising, it returns the amount of donors, \n    //the total amount of tokens donated and if it's open\n    function getFundRaising(string memory identification) public view returns (uint256, uint256, bool) {\n        require(bytes(identification).length > 0, \"Identification should not be empty\");\n        FundRaising storage fundraising = fundraisings[identification];\n        return (fundraising.totalAmount,fundraising.donorCount,fundraising.isOpen);\n    }\n\n    //Given a fund raising and a number of donor, it returns the amount donated and the message left\n    function getDonor(string memory identification, uint256 donorId) public view returns (uint256, string memory, uint256) {\n        require(bytes(identification).length > 0, \"Identification should not be empty\");\n        \n        FundRaising storage fundraising = fundraisings[identification];\n        return (fundraising.donors[donorId].donorId, fundraising.donors[donorId].message, fundraising.donors[donorId].amount);\n    }\n    \n    //Given the name of a fundraising (created by the account that queries,\n    //it withdraws the pending tokens stored in the contract. Balances are updated\n    function withdrawFunds(string memory identification) public {\n        require(bytes(identification).length > 0, \"Identification should not be empty\");\n        require(msg.sender == fundraisings[identification].creator, \"Only the creator can retrieve funds\");\n        require(fundraisings[identification].amountToRetrieve > 0 ,\"There's no funds to retrieve\");\n\n        uint256 amount = fundraisings[identification].amountToRetrieve;\n\n        address payable owner = msg.sender;\n\n        owner.transfer(amount); \n        fundraisings[identification].amountToRetrieve = 0;\n\n        emit FundsRetrieved(msg.sender, identification, amount);\n\n        \n    }\n    */\n}\n\n",
  "sourcePath": "/home/fede/Documentos/Code/Solidity/Sin curso/CryptoBridge/cryptobridge/src/contracts/CryptoBridge.sol",
  "compiler": {
    "name": "solc",
    "version": "0.5.16+commit.9c3226ce.Emscripten.clang"
  },
  "schemaVersion": "3.2.3",
  "updatedAt": "2023-07-30T03:54:06.809Z",
  "devdoc": {
    "methods": {}
  },
  "userdoc": {
    "methods": {}
  }
}