{
  "contractName": "CryptoBridge",
  "abi": [
    {
      "anonymous": false,
      "inputs": [
        {
          "indexed": true,
          "internalType": "uint256",
          "name": "donorId",
          "type": "uint256"
        },
        {
          "indexed": false,
          "internalType": "string",
          "name": "identification",
          "type": "string"
        },
        {
          "indexed": false,
          "internalType": "uint256",
          "name": "amount",
          "type": "uint256"
        },
        {
          "indexed": false,
          "internalType": "string",
          "name": "message",
          "type": "string"
        }
      ],
      "name": "DonationReceived",
      "type": "event"
    },
    {
      "anonymous": false,
      "inputs": [
        {
          "indexed": false,
          "internalType": "string",
          "name": "identification",
          "type": "string"
        }
      ],
      "name": "FundRaisingCreated",
      "type": "event"
    },
    {
      "anonymous": false,
      "inputs": [
        {
          "indexed": true,
          "internalType": "address",
          "name": "retriever",
          "type": "address"
        },
        {
          "indexed": false,
          "internalType": "string",
          "name": "identification",
          "type": "string"
        },
        {
          "indexed": false,
          "internalType": "uint256",
          "name": "amount",
          "type": "uint256"
        }
      ],
      "name": "FundsRetrieved",
      "type": "event"
    },
    {
      "inputs": [
        {
          "internalType": "string",
          "name": "identification",
          "type": "string"
        },
        {
          "internalType": "string",
          "name": "imgpath",
          "type": "string"
        }
      ],
      "name": "createFundRaising",
      "outputs": [],
      "stateMutability": "nonpayable",
      "type": "function"
    },
    {
      "inputs": [
        {
          "internalType": "string",
          "name": "identification",
          "type": "string"
        }
      ],
      "name": "openFundRaising",
      "outputs": [],
      "stateMutability": "nonpayable",
      "type": "function"
    },
    {
      "inputs": [
        {
          "internalType": "string",
          "name": "identification",
          "type": "string"
        }
      ],
      "name": "closeDonations",
      "outputs": [],
      "stateMutability": "nonpayable",
      "type": "function"
    },
    {
      "inputs": [
        {
          "internalType": "string",
          "name": "identification",
          "type": "string"
        },
        {
          "internalType": "string",
          "name": "message",
          "type": "string"
        }
      ],
      "name": "donate",
      "outputs": [],
      "stateMutability": "payable",
      "type": "function"
    },
    {
      "inputs": [],
      "name": "getAmountOfFundRaisings",
      "outputs": [
        {
          "internalType": "uint256",
          "name": "",
          "type": "uint256"
        }
      ],
      "stateMutability": "view",
      "type": "function"
    },
    {
      "inputs": [],
      "name": "getAmountOfMyFundRaisings",
      "outputs": [
        {
          "internalType": "uint256",
          "name": "",
          "type": "uint256"
        }
      ],
      "stateMutability": "view",
      "type": "function"
    },
    {
      "inputs": [
        {
          "internalType": "uint256",
          "name": "fundraiseid",
          "type": "uint256"
        }
      ],
      "name": "getNameOfMyFundRaise",
      "outputs": [
        {
          "internalType": "string",
          "name": "",
          "type": "string"
        },
        {
          "internalType": "uint256",
          "name": "",
          "type": "uint256"
        }
      ],
      "stateMutability": "view",
      "type": "function"
    },
    {
      "inputs": [
        {
          "internalType": "string",
          "name": "identification",
          "type": "string"
        }
      ],
      "name": "getFundRaising",
      "outputs": [
        {
          "internalType": "uint256",
          "name": "",
          "type": "uint256"
        },
        {
          "internalType": "uint256",
          "name": "",
          "type": "uint256"
        },
        {
          "internalType": "bool",
          "name": "",
          "type": "bool"
        }
      ],
      "stateMutability": "view",
      "type": "function"
    },
    {
      "inputs": [
        {
          "internalType": "string",
          "name": "identification",
          "type": "string"
        },
        {
          "internalType": "uint256",
          "name": "donorId",
          "type": "uint256"
        }
      ],
      "name": "getDonor",
      "outputs": [
        {
          "internalType": "uint256",
          "name": "",
          "type": "uint256"
        },
        {
          "internalType": "string",
          "name": "",
          "type": "string"
        },
        {
          "internalType": "uint256",
          "name": "",
          "type": "uint256"
        }
      ],
      "stateMutability": "view",
      "type": "function"
    },
    {
      "inputs": [
        {
          "internalType": "string",
          "name": "identification",
          "type": "string"
        }
      ],
      "name": "withdrawFunds",
      "outputs": [],
      "stateMutability": "nonpayable",
      "type": "function"
    }
  ],
  "bytecode": "0x608060405234801561001057600080fd5b50611e51806100206000396000f3fe6080604052600436106100915760003560e01c8063b50a3bab11610059578063b50a3bab1461016b578063b529104514610196578063b71aa3f1146101d5578063c650f851146101fe578063d71ae0c01461022957610091565b806303b86b5a146100965780631653441c146100bf5780631e3afb0c146100db578063a8535a0014610104578063a9e4d60814610142575b600080fd5b3480156100a257600080fd5b506100bd60048036038101906100b891906112f0565b610268565b005b6100d960048036038101906100d49190611331565b6104a7565b005b3480156100e757600080fd5b5061010260048036038101906100fd9190611331565b610706565b005b34801561011057600080fd5b5061012b600480360381019061012691906113f1565b610abb565b60405161013992919061193b565b60405180910390f35b34801561014e57600080fd5b50610169600480360381019061016491906112f0565b610c5d565b005b34801561017757600080fd5b50610180610dfc565b60405161018d9190611b10565b60405180910390f35b3480156101a257600080fd5b506101bd60048036038101906101b8919061139d565b610e46565b6040516101cc93929190611b2b565b60405180910390f35b3480156101e157600080fd5b506101fc60048036038101906101f791906112f0565b610f95565b005b34801561020a57600080fd5b50610213611133565b6040516102209190611b10565b60405180910390f35b34801561023557600080fd5b50610250600480360381019061024b91906112f0565b61113c565b60405161025f93929190611b69565b60405180910390f35b60008151116102ac576040517f08c379a00000000000000000000000000000000000000000000000000000000081526004016102a3906119f0565b60405180910390fd5b6003816040516102bc91906118eb565b908152602001604051809103902060000160009054906101000a900473ffffffffffffffffffffffffffffffffffffffff1673ffffffffffffffffffffffffffffffffffffffff163373ffffffffffffffffffffffffffffffffffffffff161461035b576040517f08c379a000000000000000000000000000000000000000000000000000000000815260040161035290611a90565b60405180910390fd5b600060038260405161036d91906118eb565b908152602001604051809103902060020154116103bf576040517f08c379a00000000000000000000000000000000000000000000000000000000081526004016103b690611a50565b60405180910390fd5b60006003826040516103d191906118eb565b90815260200160405180910390206002015490503373ffffffffffffffffffffffffffffffffffffffff166108fc829081150290604051600060405180830381858888f1935050505015801561042b573d6000803e3d6000fd5b50600060038360405161043e91906118eb565b9081526020016040518091039020600201819055503373ffffffffffffffffffffffffffffffffffffffff167f949fa8c23075761d583703ca2157d38536172f536f30113854026c25ba3e2e9e838360405161049b92919061193b565b60405180910390a25050565b600034116104ea576040517f08c379a00000000000000000000000000000000000000000000000000000000081526004016104e1906119d0565b60405180910390fd5b600082511161052e576040517f08c379a0000000000000000000000000000000000000000000000000000000008152600401610525906119f0565b60405180910390fd5b60038260405161053e91906118eb565b908152602001604051809103902060040160009054906101000a900460ff1661059c576040517f08c379a000000000000000000000000000000000000000000000000000000000815260040161059390611a70565b60405180910390fd5b60006003836040516105ae91906118eb565b908152602001604051809103902090506000600182600301546105d19190611c3d565b9050808260060160008381526020019081526020016000206000018190555034826006016000838152602001908152602001600020600101819055503460038560405161061e91906118eb565b9081526020016040518091039020600101600082825461063e9190611c3d565b925050819055503460038560405161065691906118eb565b908152602001604051809103902060020160008282546106769190611c3d565b925050819055508282600601600083815260200190815260200160002060020190805190602001906106a99291906111d0565b508160030160008154809291906106bf90611d1d565b9190505550807fb18becd5c4053355c119c6fbf7aae3e0747642f93ae871c70cb2c16001d1fe318534866040516106f89392919061196b565b60405180910390a250505050565b600082511161074a576040517f08c379a0000000000000000000000000000000000000000000000000000000008152600401610741906119f0565b60405180910390fd5b6000151560048360405161075e91906118eb565b908152602001604051809103902060009054906101000a900460ff161515146107bc576040517f08c379a00000000000000000000000000000000000000000000000000000000081526004016107b390611a10565b60405180910390fd5b600260003373ffffffffffffffffffffffffffffffffffffffff1673ffffffffffffffffffffffffffffffffffffffff168152602001908152602001600020600001600081548092919061080f90611d1d565b91905055506000600260003373ffffffffffffffffffffffffffffffffffffffff1673ffffffffffffffffffffffffffffffffffffffff16815260200190815260200160002060000154905082600260003373ffffffffffffffffffffffffffffffffffffffff1673ffffffffffffffffffffffffffffffffffffffff168152602001908152602001600020600101600083815260200190815260200160002090805190602001906108c29291906111d0565b50336003846040516108d491906118eb565b908152602001604051809103902060000160006101000a81548173ffffffffffffffffffffffffffffffffffffffff021916908373ffffffffffffffffffffffffffffffffffffffff160217905550600060038460405161093591906118eb565b908152602001604051809103902060010181905550600060038460405161095c91906118eb565b908152602001604051809103902060020181905550600060038460405161098391906118eb565b90815260200160405180910390206003018190555060016003846040516109aa91906118eb565b908152602001604051809103902060040160006101000a81548160ff021916908315150217905550816003846040516109e391906118eb565b90815260200160405180910390206005019080519060200190610a079291906111d0565b506001600484604051610a1a91906118eb565b908152602001604051809103902060006101000a81548160ff0219169083151502179055508260016000805481526020019081526020016000209080519060200190610a679291906111d0565b50600080815480929190610a7a90611d1d565b91905055507f277a1d10e49bd6b7733ce9bf56c9ffc900b2e686ba0e5276a82fdafd008bc16183604051610aae9190611919565b60405180910390a1505050565b60606000808311610b01576040517f08c379a0000000000000000000000000000000000000000000000000000000008152600401610af890611a30565b60405180910390fd5b600260003373ffffffffffffffffffffffffffffffffffffffff1673ffffffffffffffffffffffffffffffffffffffff16815260200190815260200160002060010160008481526020019081526020016000206003600260003373ffffffffffffffffffffffffffffffffffffffff1673ffffffffffffffffffffffffffffffffffffffff1681526020019081526020016000206001016000868152602001908152602001600020604051610bb69190611902565b908152602001604051809103902060020154818054610bd490611ceb565b80601f0160208091040260200160405190810160405280929190818152602001828054610c0090611ceb565b8015610c4d5780601f10610c2257610100808354040283529160200191610c4d565b820191906000526020600020905b815481529060010190602001808311610c3057829003601f168201915b5050505050915091509150915091565b6000815111610ca1576040517f08c379a0000000000000000000000000000000000000000000000000000000008152600401610c98906119f0565b60405180910390fd5b600381604051610cb191906118eb565b908152602001604051809103902060000160009054906101000a900473ffffffffffffffffffffffffffffffffffffffff1673ffffffffffffffffffffffffffffffffffffffff163373ffffffffffffffffffffffffffffffffffffffff1614610d50576040517f08c379a0000000000000000000000000000000000000000000000000000000008152600401610d4790611ad0565b60405180910390fd5b600381604051610d6091906118eb565b908152602001604051809103902060040160009054906101000a900460ff1615610dbf576040517f08c379a0000000000000000000000000000000000000000000000000000000008152600401610db690611ab0565b60405180910390fd5b6001600382604051610dd191906118eb565b908152602001604051809103902060040160006101000a81548160ff02191690831515021790555050565b6000600260003373ffffffffffffffffffffffffffffffffffffffff1673ffffffffffffffffffffffffffffffffffffffff16815260200190815260200160002060000154905090565b60006060600080855111610e8f576040517f08c379a0000000000000000000000000000000000000000000000000000000008152600401610e86906119f0565b60405180910390fd5b6000600386604051610ea191906118eb565b908152602001604051809103902090508060060160008681526020019081526020016000206000015481600601600087815260200190815260200160002060020182600601600088815260200190815260200160002060010154818054610f0790611ceb565b80601f0160208091040260200160405190810160405280929190818152602001828054610f3390611ceb565b8015610f805780601f10610f5557610100808354040283529160200191610f80565b820191906000526020600020905b815481529060010190602001808311610f6357829003601f168201915b50505050509150935093509350509250925092565b6000815111610fd9576040517f08c379a0000000000000000000000000000000000000000000000000000000008152600401610fd0906119f0565b60405180910390fd5b600381604051610fe991906118eb565b908152602001604051809103902060000160009054906101000a900473ffffffffffffffffffffffffffffffffffffffff1673ffffffffffffffffffffffffffffffffffffffff163373ffffffffffffffffffffffffffffffffffffffff1614611088576040517f08c379a000000000000000000000000000000000000000000000000000000000815260040161107f90611af0565b60405180910390fd5b60038160405161109891906118eb565b908152602001604051809103902060040160009054906101000a900460ff166110f6576040517f08c379a00000000000000000000000000000000000000000000000000000000081526004016110ed906119b0565b60405180910390fd5b600060038260405161110891906118eb565b908152602001604051809103902060040160006101000a81548160ff02191690831515021790555050565b60008054905090565b600080600080845111611184576040517f08c379a000000000000000000000000000000000000000000000000000000000815260040161117b906119f0565b60405180910390fd5b600060038560405161119691906118eb565b90815260200160405180910390209050806001015481600301548260040160009054906101000a900460ff16935093509350509193909250565b8280546111dc90611ceb565b90600052602060002090601f0160209004810192826111fe5760008555611245565b82601f1061121757805160ff1916838001178555611245565b82800160010185558215611245579182015b82811115611244578251825591602001919060010190611229565b5b5090506112529190611256565b5090565b5b8082111561126f576000816000905550600101611257565b5090565b600061128661128184611bd1565b611ba0565b90508281526020810184848401111561129e57600080fd5b6112a9848285611ca9565b509392505050565b600082601f8301126112c257600080fd5b81356112d2848260208601611273565b91505092915050565b6000813590506112ea81611e04565b92915050565b60006020828403121561130257600080fd5b600082013567ffffffffffffffff81111561131c57600080fd5b611328848285016112b1565b91505092915050565b6000806040838503121561134457600080fd5b600083013567ffffffffffffffff81111561135e57600080fd5b61136a858286016112b1565b925050602083013567ffffffffffffffff81111561138757600080fd5b611393858286016112b1565b9150509250929050565b600080604083850312156113b057600080fd5b600083013567ffffffffffffffff8111156113ca57600080fd5b6113d6858286016112b1565b92505060206113e7858286016112db565b9150509250929050565b60006020828403121561140357600080fd5b6000611411848285016112db565b91505092915050565b61142381611c93565b82525050565b600061143482611c16565b61143e8185611c21565b935061144e818560208601611cb8565b61145781611df3565b840191505092915050565b600061146d82611c16565b6114778185611c32565b9350611487818560208601611cb8565b80840191505092915050565b600081546114a081611ceb565b6114aa8186611c32565b945060018216600081146114c557600181146114d657611509565b60ff19831686528186019350611509565b6114df85611c01565b60005b83811015611501578154818901526001820191506020810190506114e2565b838801955050505b50505092915050565b600061151f601b83611c21565b91507f46756e642072616973696e6720616c726561647920636c6f73656400000000006000830152602082019050919050565b600061155f602b83611c21565b91507f446f6e6174696f6e20616d6f756e742073686f756c642062652067726561746560008301527f72207468616e207a65726f0000000000000000000000000000000000000000006020830152604082019050919050565b60006115c5602283611c21565b91507f4964656e74696669636174696f6e2073686f756c64206e6f7420626520656d7060008301527f74790000000000000000000000000000000000000000000000000000000000006020830152604082019050919050565b600061162b603883611c21565b91507f546865726520697320616c726561647920612066756e642072616973696e672060008301527f776974682074686174206964656e74696669636174696f6e00000000000000006020830152604082019050919050565b6000611691602183611c21565b91507f46756e642072616973652069642073686f756c64206e6f7420626520656d707460008301527f79000000000000000000000000000000000000000000000000000000000000006020830152604082019050919050565b60006116f7601c83611c21565b91507f54686572652773206e6f2066756e647320746f207265747269657665000000006000830152602082019050919050565b6000611737601583611c21565b91507f46756e6472616973696e6720697320636c6f73656400000000000000000000006000830152602082019050919050565b6000611777602383611c21565b91507f4f6e6c79207468652063726561746f722063616e20726574726965766520667560008301527f6e647300000000000000000000000000000000000000000000000000000000006020830152604082019050919050565b60006117dd601983611c21565b91507f46756e642072616973696e6720616c7265616479206f70656e000000000000006000830152602082019050919050565b600061181d602883611c21565b91507f4f6e6c79207468652063726561746f722063616e206f70656e20612066756e6460008301527f2072616973696e670000000000000000000000000000000000000000000000006020830152604082019050919050565b6000611883602983611c21565b91507f4f6e6c79207468652063726561746f722063616e20636c6f736520612066756e60008301527f642072616973696e6700000000000000000000000000000000000000000000006020830152604082019050919050565b6118e581611c9f565b82525050565b60006118f78284611462565b915081905092915050565b600061190e8284611493565b915081905092915050565b600060208201905081810360008301526119338184611429565b905092915050565b600060408201905081810360008301526119558185611429565b905061196460208301846118dc565b9392505050565b600060608201905081810360008301526119858186611429565b905061199460208301856118dc565b81810360408301526119a68184611429565b9050949350505050565b600060208201905081810360008301526119c981611512565b9050919050565b600060208201905081810360008301526119e981611552565b9050919050565b60006020820190508181036000830152611a09816115b8565b9050919050565b60006020820190508181036000830152611a298161161e565b9050919050565b60006020820190508181036000830152611a4981611684565b9050919050565b60006020820190508181036000830152611a69816116ea565b9050919050565b60006020820190508181036000830152611a898161172a565b9050919050565b60006020820190508181036000830152611aa98161176a565b9050919050565b60006020820190508181036000830152611ac9816117d0565b9050919050565b60006020820190508181036000830152611ae981611810565b9050919050565b60006020820190508181036000830152611b0981611876565b9050919050565b6000602082019050611b2560008301846118dc565b92915050565b6000606082019050611b4060008301866118dc565b8181036020830152611b528185611429565b9050611b6160408301846118dc565b949350505050565b6000606082019050611b7e60008301866118dc565b611b8b60208301856118dc565b611b98604083018461141a565b949350505050565b6000604051905081810181811067ffffffffffffffff82111715611bc757611bc6611dc4565b5b8060405250919050565b600067ffffffffffffffff821115611bec57611beb611dc4565b5b601f19601f8301169050602081019050919050565b60008190508160005260206000209050919050565b600081519050919050565b600082825260208201905092915050565b600081905092915050565b6000611c4882611c9f565b9150611c5383611c9f565b9250827fffffffffffffffffffffffffffffffffffffffffffffffffffffffffffffffff03821115611c8857611c87611d66565b5b828201905092915050565b60008115159050919050565b6000819050919050565b82818337600083830152505050565b60005b83811015611cd6578082015181840152602081019050611cbb565b83811115611ce5576000848401525b50505050565b60006002820490506001821680611d0357607f821691505b60208210811415611d1757611d16611d95565b5b50919050565b6000611d2882611c9f565b91507fffffffffffffffffffffffffffffffffffffffffffffffffffffffffffffffff821415611d5b57611d5a611d66565b5b600182019050919050565b7f4e487b7100000000000000000000000000000000000000000000000000000000600052601160045260246000fd5b7f4e487b7100000000000000000000000000000000000000000000000000000000600052602260045260246000fd5b7f4e487b7100000000000000000000000000000000000000000000000000000000600052604160045260246000fd5b6000601f19601f8301169050919050565b611e0d81611c9f565b8114611e1857600080fd5b5056fea26469706673582212203e26b5c4f0d51421713a03ca905d4f640f499f772b8895e18eb3364cf891b46864736f6c63430008000033",
  "immutableReferences": {},
  "source": "// SPDX-License-Identifier: MIT\npragma solidity ^0.8.0;\n\ncontract CryptoBridge {\n    //STRUCTS\n    struct FundRaising {\n        address creator;\n        uint256 totalAmount;\n        uint256 amountToRetrieve;\n        uint256 donorCount;\n        bool isOpen;\n        string img;\n        mapping(uint256 => Donor) donors;\n    }\n\n    struct Donor {\n        uint256 donorId;\n        uint256 amount;\n        string message;\n    }\n\n    struct User {\n        uint256 fundraisingCount;\n        mapping(uint256 => string) fundraisings;\n    }\n\n    uint256 private amountoffundraisings;\n\n    //Mappings\n    mapping(uint256 => string) private fundRaisingsList;\n    mapping(address => User) private userFundraisings;\n    mapping(string => FundRaising) private fundraisings;\n    mapping(string => bool) private fundraisingExist;\n\n    //Events\n    event FundRaisingCreated(string identification);\n    event DonationReceived(uint256 indexed donorId, string identification, uint256 amount, string message);\n    event FundsRetrieved(address indexed retriever, string identification, uint256 amount);\n\n    //Functions\n    //Creates a fund raising associate to caster, is open by default.\n    function createFundRaising(string memory identification, string memory imgpath) public {\n        require(bytes(identification).length > 0, \"Identification should not be empty\");\n        require(fundraisingExist[identification] == false, \"There is already a fund raising with that identification\");\n\n        userFundraisings[msg.sender].fundraisingCount ++;\n        uint256 fundraisingCount = userFundraisings[msg.sender].fundraisingCount;\n        userFundraisings[msg.sender].fundraisings[fundraisingCount] = identification;\n\n        fundraisings[identification].creator = msg.sender;\n        fundraisings[identification].totalAmount = 0;\n        fundraisings[identification].amountToRetrieve = 0;\n        fundraisings[identification].donorCount = 0;\n        fundraisings[identification].isOpen = true;\n        fundraisings[identification].img = imgpath;\n        fundraisingExist[identification] = true;\n\n        fundRaisingsList[amountoffundraisings] = identification;\n        amountoffundraisings++;\n\n        emit FundRaisingCreated(identification);\n    }\n\n    //Opens the fund raising to enable it to receive donations\n    function openFundRaising(string memory identification) public  {\n        require(bytes(identification).length > 0, \"Identification should not be empty\");\n        require(msg.sender == fundraisings[identification].creator, \"Only the creator can open a fund raising\");\n        require(!fundraisings[identification].isOpen, \"Fund raising already open\");\n        fundraisings[identification].isOpen = true;\n    }\n\n    //Close the fund raising to disable it to receive donations. It can be reopened.\n    function closeDonations(string memory identification) public  {\n        require(bytes(identification).length > 0, \"Identification should not be empty\");\n        require(msg.sender == fundraisings[identification].creator, \"Only the creator can close a fund raising\");\n        require(fundraisings[identification].isOpen, \"Fund raising already closed\");\n        fundraisings[identification].isOpen = false;\n    }\n\n    //Donates to the fundraising [identification] an amount set in VALUE. \n    //In [message], a message can be left with the donation.\n    function donate(string memory identification, string memory message) public payable {\n        require(msg.value > 0, \"Donation amount should be greater than zero\");\n        require(bytes(identification).length > 0, \"Identification should not be empty\");\n        require(fundraisings[identification].isOpen, \"Fundraising is closed\");\n\n        FundRaising storage fundraising = fundraisings[identification];\n        uint256 donorId = fundraising.donorCount + 1;\n        fundraising.donors[donorId].donorId = donorId;\n        fundraising.donors[donorId].amount = msg.value;\n        fundraisings[identification].totalAmount += msg.value;\n        fundraisings[identification].amountToRetrieve += msg.value;\n        fundraising.donors[donorId].message = message;\n        fundraising.donorCount++;\n\n        emit DonationReceived(donorId, identification, msg.value, message);\n    }\n\n    //Returns the amount of fund raisings stored in the contract.\n    function getAmountOfFundRaisings() public view returns (uint256) {\n        return (amountoffundraisings);\n    }\n\n    //Returns the amount of fund raisings associated to my account.\n    function getAmountOfMyFundRaisings() public view returns (uint256) {\n        return (userFundraisings[msg.sender].fundraisingCount);\n    }\n\n    //From 1 to the amount of fund raisings associated to the account, \n    //returns the name of the fundraise and the amount of funds to retrieve\n    function getNameOfMyFundRaise(uint256 fundraiseid) public view returns (string memory, uint256) {\n        require(fundraiseid > 0, \"Fund raise id should not be empty\");\n        return (userFundraisings[msg.sender].fundraisings[fundraiseid], fundraisings[userFundraisings[msg.sender].fundraisings[fundraiseid]].amountToRetrieve);\n    }\n\n    //given the name of any fund raising, it returns the amount of donors, \n    //the total amount of tokens donated and if it's open\n    function getFundRaising(string memory identification) public view returns (uint256, uint256, bool) {\n        require(bytes(identification).length > 0, \"Identification should not be empty\");\n        FundRaising storage fundraising = fundraisings[identification];\n        return (fundraising.totalAmount,fundraising.donorCount,fundraising.isOpen);\n    }\n\n    //Given a fund raising and a number of donor, it returns the amount donated and the message left\n    function getDonor(string memory identification, uint256 donorId) public view returns (uint256, string memory, uint256) {\n        require(bytes(identification).length > 0, \"Identification should not be empty\");\n\n        FundRaising storage fundraising = fundraisings[identification];\n        return (fundraising.donors[donorId].donorId, fundraising.donors[donorId].message, fundraising.donors[donorId].amount);\n    }\n\n    //Given the name of a fundraising (created by the account that queries,\n    //it withdraws the pending tokens stored in the contract. Balances are updated\n    function withdrawFunds(string memory identification) public {\n        require(bytes(identification).length > 0, \"Identification should not be empty\");\n        require(msg.sender == fundraisings[identification].creator, \"Only the creator can retrieve funds\");\n        require(fundraisings[identification].amountToRetrieve > 0 ,\"There's no funds to retrieve\");\n\n        uint256 amount = fundraisings[identification].amountToRetrieve;\n\n        payable(msg.sender).transfer(amount); \n        fundraisings[identification].amountToRetrieve = 0;\n\n        emit FundsRetrieved(msg.sender, identification, amount);       \n    }\n}\n/*\npragma solidity ^0.8.0;\n\n\ncontract CryptoBridge {\n\n    string public name = \"CryptoBridge\";\n\n    //Stores FundRaising\n    uint public fundRaisingsCount = 0;\n    mapping(uint => string) public fundraisingsList;\n    mapping(string => FundRaising) private fundraisings;\n    mapping(string => mapping(uint=>Donation)) public fundraisingsdonations; //Double mapping to get each donation of any fundraising\n    mapping(string => bool) private fundraisingExist;\n\n    struct FundRaising {\n        uint id;\n        string string_id;\n        string imghash;\n        uint totalAmount;\n        uint amountToRetrieve;\n        uint donorCount;\n        bool isOpen;\n        address payable author;\n    }\n\n    event FundRaisingModified (\n        FundRaising fundraising\n    );\n    \n    struct FundRaisingDonations {\n        mapping(uint=>Donation) donations;\n    }\n\n    struct Donation {\n        uint amount;\n        string message;\n    }\n\n    //Creates FundRaising\n    function createFundRaising(string memory _string_id, string memory _imgHash) public {\n        require(bytes(_string_id).length > 0, \"Identification should not be empty\");\n        require(fundraisingExist[_string_id] == false, \"There is already a fund raising with that identification\");\n        \n        //Increment fundraisings id\n        fundRaisingsCount++;\n\n        //Add fundraising to contract\n        fundraisingsList[fundRaisingsCount] = _string_id;\n        FundRaising memory new_fundraising = FundRaising(fundRaisingsCount,_string_id,_imgHash,0,0,0,true,payable(msg.sender));\n        fundraisings[_string_id] = new_fundraising;\n        fundraisingExist[_string_id] = true;\n        //Trigger event\n        emit FundRaisingModified(new_fundraising);\n    }\n\n    function openFundRaising(string memory _string_id) public {\n        require(bytes(_string_id).length > 0, \"Identification should not be empty\");\n        require(fundraisings[_string_id].author == msg.sender,\"Only creator can open a fundraising\");\n        require(!fundraisings[_string_id].isOpen,\"Can't open an already open fundraising\");\n\n        fundraisings[_string_id].isOpen = true;\n        emit FundRaisingModified(fundraisings[_string_id]);\n    }\n\n    function closeFundRaising(string memory _string_id) public {\n        require(bytes(_string_id).length > 0, \"Identification should not be empty\");\n        require(fundraisings[_string_id].author == msg.sender,\"Only creator can close a fundraising\");\n        require(fundraisings[_string_id].isOpen,\"Can't close an already closed fundraising\");\n\n        fundraisings[_string_id].isOpen = false;\n        emit FundRaisingModified(fundraisings[_string_id]);\n    }\n\n    function donate(string memory _string_id, string memory _message) public payable {\n        //Donate funds in payable\n        //Update the funding\n        FundRaising memory donation_fr = fundraisings[_string_id];\n        require(donation_fr.isOpen);\n\n        donation_fr.donorCount++;\n        donation_fr.totalAmount += msg.value;\n        donation_fr.amountToRetrieve += msg.value;\n\n        fundraisings[_string_id] = donation_fr;\n\n        //Get donation in donors list\n        fundraisingsdonations[_string_id][donation_fr.donorCount] = Donation(msg.value, _message);\n\n        emit FundRaisingModified(donation_fr);\n        \n    }\n\n    //Given the name of a fundraising (created by the account that queries,\n    //it withdraws the pending tokens stored in the contract. Balances are updated\n    function withdrawFunds(string memory _string_id) public {\n        require(bytes(_string_id).length > 0, \"Identification should not be empty\");\n        require(msg.sender == fundraisings[_string_id].author, \"Only the author can retrieve funds\");\n        require(fundraisings[_string_id].amountToRetrieve > 0 ,\"There's no funds to retrieve\");\n\n        uint256 amount = fundraisings[_string_id].amountToRetrieve;\n\n        address payable owner = payable(msg.sender);\n\n        owner.transfer(amount); \n        fundraisings[_string_id].amountToRetrieve = 0;\n\n        emit FundRaisingModified(fundraisings[_string_id]);\n    }\n\n    //Getters\n\n    //ACA COMENTADO\n    //STRUCTS\n    struct FundRaising {\n        address creator;\n        uint256 totalAmount;\n        uint256 amountToRetrieve;\n        uint256 donorCount;\n        bool isOpen;\n        string img;\n        mapping(uint256 => Donor) donors;\n    }\n    \n    struct Donor {\n        uint256 donorId;\n        uint256 amount;\n        string message;\n    }\n\n    struct User {\n        uint256 fundraisingCount;\n        mapping(uint256 => string) fundraisings;\n    }\n\n    uint256 private amountoffundraisings;\n\n    //Mappings\n    mapping(uint256 => string) private fundRaisingsList;\n    mapping(address => User) private userFundraisings;\n    mapping(string => FundRaising) private fundraisings;\n    mapping(string => bool) private fundraisingExist;\n\n    //Events\n    event FundRaisingCreated(string identification, string imgpath);\n    event DonationReceived(uint256 indexed donorId, string identification, uint256 amount, string message);\n    event FundsRetrieved(address indexed retriever, string identification, uint256 amount);\n  \n    //Functions\n    //Creates a fund raising associate to caster, is open by default.\n    function createFundRaising(string memory identification, string memory imgpath) public {\n        require(bytes(identification).length > 0, \"Identification should not be empty\");\n        require(fundraisingExist[identification] == false, \"There is already a fund raising with that identification\");\n        \n        userFundraisings[msg.sender].fundraisingCount ++;\n        uint256 fundraisingCount = userFundraisings[msg.sender].fundraisingCount;\n        userFundraisings[msg.sender].fundraisings[fundraisingCount] = identification;\n\n        fundraisings[identification].creator = msg.sender;\n        fundraisings[identification].totalAmount = 0;\n        fundraisings[identification].amountToRetrieve = 0;\n        fundraisings[identification].donorCount = 0;\n        fundraisings[identification].isOpen = true;\n        fundraisings[identification].img = imgpath;\n        fundraisingExist[identification] = true;\n\n        fundRaisingsList[amountoffundraisings] = identification;\n        amountoffundraisings++;\n\n        emit FundRaisingCreated(identification,imgpath);\n    }\n\n    //Opens the fund raising to enable it to receive donations\n    function openFundRaising(string memory identification) public  {\n        require(bytes(identification).length > 0, \"Identification should not be empty\");\n        require(msg.sender == fundraisings[identification].creator, \"Only the creator can open a fund raising\");\n        require(!fundraisings[identification].isOpen, \"Fund raising already open\");\n        fundraisings[identification].isOpen = true;\n    }\n\n    //Close the fund raising to disable it to receive donations. It can be reopened.\n    function closeFundRaising(string memory identification) public  {\n        require(bytes(identification).length > 0, \"Identification should not be empty\");\n        require(msg.sender == fundraisings[identification].creator, \"Only the creator can close a fund raising\");\n        require(fundraisings[identification].isOpen, \"Fund raising already closed\");\n        fundraisings[identification].isOpen = false;\n    }\n\n    //Donates to the fundraising [identification] an amount set in VALUE. \n    //In [message], a message can be left with the donation.\n    function donate(string memory identification, string memory message) public payable {\n        require(msg.value > 0, \"Donation amount should be greater than zero\");\n        require(bytes(identification).length > 0, \"Identification should not be empty\");\n        require(fundraisings[identification].isOpen, \"Fundraising is closed\");\n\n        FundRaising storage fundraising = fundraisings[identification];\n        uint256 donorId = fundraising.donorCount + 1;\n        fundraising.donors[donorId].donorId = donorId;\n        fundraising.donors[donorId].amount = msg.value;\n        fundraisings[identification].totalAmount += msg.value;\n        fundraisings[identification].amountToRetrieve += msg.value;\n        fundraising.donors[donorId].message = message;\n        fundraising.donorCount++;\n\n        emit DonationReceived(donorId, identification, msg.value, message);\n    }\n    \n    //Returns the amount of fund raisings stored in the contract.\n    function getAmountOfFundRaisings() public view returns (uint256) {\n        return (amountoffundraisings);\n    }\n\n    //Returns the amount of fund raisings associated to my account.\n    function getAmountOfMyFundRaisings() public view returns (uint256) {\n        return (userFundraisings[msg.sender].fundraisingCount);\n    }\n\n    //From 1 to the amount of fund raisings associated to the account, \n    //returns the name of the fundraise and the amount of funds to retrieve\n    function getNameOfMyFundRaise(uint256 fundraiseid) public view returns (string memory, uint256) {\n        require(fundraiseid > 0, \"Fund raise id should not be empty\");\n        return (userFundraisings[msg.sender].fundraisings[fundraiseid], fundraisings[userFundraisings[msg.sender].fundraisings[fundraiseid]].amountToRetrieve);\n    }\n\n    //From 1 to the amount of all fund raisings, \n    //returns the name of the fundraise and the amount of funds to retrieve\n    function getNameOfFundRaise(uint256 fundraiseid) public view returns (string memory) {\n        require(fundraiseid > 0, \"Fund raise id should not be empty\");\n        return (fundRaisingsList[fundraiseid]);\n    }\n\n    //given the name of any fund raising, it returns the amount of donors, \n    //the total amount of tokens donated and if it's open\n    function getFundRaising(string memory identification) public view returns (uint256, uint256, bool) {\n        require(bytes(identification).length > 0, \"Identification should not be empty\");\n        FundRaising storage fundraising = fundraisings[identification];\n        return (fundraising.totalAmount,fundraising.donorCount,fundraising.isOpen);\n    }\n\n    //Given a fund raising and a number of donor, it returns the amount donated and the message left\n    function getDonor(string memory identification, uint256 donorId) public view returns (uint256, string memory, uint256) {\n        require(bytes(identification).length > 0, \"Identification should not be empty\");\n        \n        FundRaising storage fundraising = fundraisings[identification];\n        return (fundraising.donors[donorId].donorId, fundraising.donors[donorId].message, fundraising.donors[donorId].amount);\n    }\n    \n    //Given the name of a fundraising (created by the account that queries,\n    //it withdraws the pending tokens stored in the contract. Balances are updated\n    function withdrawFunds(string memory identification) public {\n        require(bytes(identification).length > 0, \"Identification should not be empty\");\n        require(msg.sender == fundraisings[identification].creator, \"Only the creator can retrieve funds\");\n        require(fundraisings[identification].amountToRetrieve > 0 ,\"There's no funds to retrieve\");\n\n        uint256 amount = fundraisings[identification].amountToRetrieve;\n\n        address payable owner = msg.sender;\n\n        owner.transfer(amount); \n        fundraisings[identification].amountToRetrieve = 0;\n\n        emit FundsRetrieved(msg.sender, identification, amount);\n\n        \n    }\n\n}\n*/\n",
  "sourcePath": "/home/fede/Documentos/Code/Solidity/Sin curso/CryptoBridge/cryptobridge/src/contracts/CryptoBridge.sol",
  "compiler": {
    "name": "solc",
    "version": "0.8.0+commit.c7dfd78e.Emscripten.clang"
  },
  "schemaVersion": "3.2.3",
  "updatedAt": "2024-01-14T01:07:03.861Z",
  "devdoc": {
    "kind": "dev",
    "methods": {},
    "version": 1
  },
  "userdoc": {
    "kind": "user",
    "methods": {},
    "version": 1
  }
}