{
  "contractName": "CryptoBridge",
  "abi": [
    {
      "anonymous": false,
      "inputs": [
        {
          "indexed": true,
          "internalType": "uint256",
          "name": "donorId",
          "type": "uint256"
        },
        {
          "indexed": false,
          "internalType": "string",
          "name": "identification",
          "type": "string"
        },
        {
          "indexed": false,
          "internalType": "uint256",
          "name": "amount",
          "type": "uint256"
        },
        {
          "indexed": false,
          "internalType": "string",
          "name": "message",
          "type": "string"
        }
      ],
      "name": "DonationReceived",
      "type": "event"
    },
    {
      "anonymous": false,
      "inputs": [
        {
          "indexed": false,
          "internalType": "string",
          "name": "identification",
          "type": "string"
        }
      ],
      "name": "FundRaisingCreated",
      "type": "event"
    },
    {
      "anonymous": false,
      "inputs": [
        {
          "indexed": true,
          "internalType": "address",
          "name": "retriever",
          "type": "address"
        },
        {
          "indexed": false,
          "internalType": "string",
          "name": "identification",
          "type": "string"
        },
        {
          "indexed": false,
          "internalType": "uint256",
          "name": "amount",
          "type": "uint256"
        }
      ],
      "name": "FundsRetrieved",
      "type": "event"
    },
    {
      "inputs": [
        {
          "internalType": "string",
          "name": "identification",
          "type": "string"
        },
        {
          "internalType": "string",
          "name": "imgpath",
          "type": "string"
        }
      ],
      "name": "createFundRaising",
      "outputs": [],
      "stateMutability": "nonpayable",
      "type": "function"
    },
    {
      "inputs": [
        {
          "internalType": "string",
          "name": "identification",
          "type": "string"
        }
      ],
      "name": "openFundRaising",
      "outputs": [],
      "stateMutability": "nonpayable",
      "type": "function"
    },
    {
      "inputs": [
        {
          "internalType": "string",
          "name": "identification",
          "type": "string"
        }
      ],
      "name": "closeFundRaising",
      "outputs": [],
      "stateMutability": "nonpayable",
      "type": "function"
    },
    {
      "inputs": [
        {
          "internalType": "string",
          "name": "identification",
          "type": "string"
        },
        {
          "internalType": "string",
          "name": "message",
          "type": "string"
        }
      ],
      "name": "donate",
      "outputs": [],
      "stateMutability": "payable",
      "type": "function",
      "payable": true
    },
    {
      "inputs": [],
      "name": "getAmountOfFundRaisings",
      "outputs": [
        {
          "internalType": "uint256",
          "name": "",
          "type": "uint256"
        }
      ],
      "stateMutability": "view",
      "type": "function",
      "constant": true
    },
    {
      "inputs": [],
      "name": "getAmountOfMyFundRaisings",
      "outputs": [
        {
          "internalType": "uint256",
          "name": "",
          "type": "uint256"
        }
      ],
      "stateMutability": "view",
      "type": "function",
      "constant": true
    },
    {
      "inputs": [
        {
          "internalType": "uint256",
          "name": "fundraisingid",
          "type": "uint256"
        }
      ],
      "name": "getNameOfMyFundRaising",
      "outputs": [
        {
          "internalType": "string",
          "name": "",
          "type": "string"
        },
        {
          "internalType": "uint256",
          "name": "",
          "type": "uint256"
        }
      ],
      "stateMutability": "view",
      "type": "function",
      "constant": true
    },
    {
      "inputs": [
        {
          "internalType": "uint256",
          "name": "fundraisingid",
          "type": "uint256"
        }
      ],
      "name": "getNameOfFundRaising",
      "outputs": [
        {
          "internalType": "string",
          "name": "",
          "type": "string"
        }
      ],
      "stateMutability": "view",
      "type": "function",
      "constant": true
    },
    {
      "inputs": [
        {
          "internalType": "string",
          "name": "identification",
          "type": "string"
        }
      ],
      "name": "getFundRaising",
      "outputs": [
        {
          "internalType": "uint256",
          "name": "",
          "type": "uint256"
        },
        {
          "internalType": "uint256",
          "name": "",
          "type": "uint256"
        },
        {
          "internalType": "bool",
          "name": "",
          "type": "bool"
        },
        {
          "internalType": "string",
          "name": "",
          "type": "string"
        }
      ],
      "stateMutability": "view",
      "type": "function",
      "constant": true
    },
    {
      "inputs": [
        {
          "internalType": "string",
          "name": "identification",
          "type": "string"
        },
        {
          "internalType": "uint256",
          "name": "donorId",
          "type": "uint256"
        }
      ],
      "name": "getDonor",
      "outputs": [
        {
          "internalType": "uint256",
          "name": "",
          "type": "uint256"
        },
        {
          "internalType": "string",
          "name": "",
          "type": "string"
        },
        {
          "internalType": "uint256",
          "name": "",
          "type": "uint256"
        }
      ],
      "stateMutability": "view",
      "type": "function",
      "constant": true
    },
    {
      "inputs": [
        {
          "internalType": "string",
          "name": "identification",
          "type": "string"
        }
      ],
      "name": "withdrawFunds",
      "outputs": [],
      "stateMutability": "nonpayable",
      "type": "function"
    }
  ],
  "bytecode": "0x608060405234801561001057600080fd5b5061202c806100206000396000f3fe60806040526004361061009c5760003560e01c8063a9e4d60811610064578063a9e4d60814610175578063b50a3bab1461019e578063b5291045146101c9578063c650f85114610208578063d71ae0c014610233578063f898e90c146102735761009c565b806303b86b5a146100a15780631653441c146100ca5780631e3afb0c146100e657806349f1b6511461010f578063576267f314610138575b600080fd5b3480156100ad57600080fd5b506100c860048036038101906100c391906114b6565b6102b1565b005b6100e460048036038101906100df91906114f7565b6104f0565b005b3480156100f257600080fd5b5061010d600480360381019061010891906114f7565b61074f565b005b34801561011b57600080fd5b50610136600480360381019061013191906114b6565b610b04565b005b34801561014457600080fd5b5061015f600480360381019061015a91906115b7565b610ca2565b60405161016c9190611adf565b60405180910390f35b34801561018157600080fd5b5061019c600480360381019061019791906114b6565b610d8a565b005b3480156101aa57600080fd5b506101b3610f29565b6040516101c09190611cd6565b60405180910390f35b3480156101d557600080fd5b506101f060048036038101906101eb9190611563565b610f73565b6040516101ff93929190611cf1565b60405180910390f35b34801561021457600080fd5b5061021d6110c2565b60405161022a9190611cd6565b60405180910390f35b34801561023f57600080fd5b5061025a600480360381019061025591906114b6565b6110cb565b60405161026a9493929190611d2f565b60405180910390f35b34801561027f57600080fd5b5061029a600480360381019061029591906115b7565b6111f4565b6040516102a8929190611b01565b60405180910390f35b60008151116102f5576040517f08c379a00000000000000000000000000000000000000000000000000000000081526004016102ec90611bb6565b60405180910390fd5b6003816040516103059190611ab1565b908152602001604051809103902060000160009054906101000a900473ffffffffffffffffffffffffffffffffffffffff1673ffffffffffffffffffffffffffffffffffffffff163373ffffffffffffffffffffffffffffffffffffffff16146103a4576040517f08c379a000000000000000000000000000000000000000000000000000000000815260040161039b90611c56565b60405180910390fd5b60006003826040516103b69190611ab1565b90815260200160405180910390206002015411610408576040517f08c379a00000000000000000000000000000000000000000000000000000000081526004016103ff90611c16565b60405180910390fd5b600060038260405161041a9190611ab1565b90815260200160405180910390206002015490503373ffffffffffffffffffffffffffffffffffffffff166108fc829081150290604051600060405180830381858888f19350505050158015610474573d6000803e3d6000fd5b5060006003836040516104879190611ab1565b9081526020016040518091039020600201819055503373ffffffffffffffffffffffffffffffffffffffff167f949fa8c23075761d583703ca2157d38536172f536f30113854026c25ba3e2e9e83836040516104e4929190611b01565b60405180910390a25050565b60003411610533576040517f08c379a000000000000000000000000000000000000000000000000000000000815260040161052a90611b96565b60405180910390fd5b6000825111610577576040517f08c379a000000000000000000000000000000000000000000000000000000000815260040161056e90611bb6565b60405180910390fd5b6003826040516105879190611ab1565b908152602001604051809103902060040160009054906101000a900460ff166105e5576040517f08c379a00000000000000000000000000000000000000000000000000000000081526004016105dc90611c36565b60405180910390fd5b60006003836040516105f79190611ab1565b9081526020016040518091039020905060006001826003015461061a9190611e18565b905080826006016000838152602001908152602001600020600001819055503482600601600083815260200190815260200160002060010181905550346003856040516106679190611ab1565b908152602001604051809103902060010160008282546106879190611e18565b925050819055503460038560405161069f9190611ab1565b908152602001604051809103902060020160008282546106bf9190611e18565b925050819055508282600601600083815260200190815260200160002060020190805190602001906106f2929190611396565b5081600301600081548092919061070890611ef8565b9190505550807fb18becd5c4053355c119c6fbf7aae3e0747642f93ae871c70cb2c16001d1fe3185348660405161074193929190611b31565b60405180910390a250505050565b6000825111610793576040517f08c379a000000000000000000000000000000000000000000000000000000000815260040161078a90611bb6565b60405180910390fd5b600015156004836040516107a79190611ab1565b908152602001604051809103902060009054906101000a900460ff16151514610805576040517f08c379a00000000000000000000000000000000000000000000000000000000081526004016107fc90611bd6565b60405180910390fd5b600260003373ffffffffffffffffffffffffffffffffffffffff1673ffffffffffffffffffffffffffffffffffffffff168152602001908152602001600020600001600081548092919061085890611ef8565b91905055506000600260003373ffffffffffffffffffffffffffffffffffffffff1673ffffffffffffffffffffffffffffffffffffffff16815260200190815260200160002060000154905082600260003373ffffffffffffffffffffffffffffffffffffffff1673ffffffffffffffffffffffffffffffffffffffff1681526020019081526020016000206001016000838152602001908152602001600020908051906020019061090b929190611396565b503360038460405161091d9190611ab1565b908152602001604051809103902060000160006101000a81548173ffffffffffffffffffffffffffffffffffffffff021916908373ffffffffffffffffffffffffffffffffffffffff160217905550600060038460405161097e9190611ab1565b90815260200160405180910390206001018190555060006003846040516109a59190611ab1565b90815260200160405180910390206002018190555060006003846040516109cc9190611ab1565b90815260200160405180910390206003018190555060016003846040516109f39190611ab1565b908152602001604051809103902060040160006101000a81548160ff02191690831515021790555081600384604051610a2c9190611ab1565b90815260200160405180910390206005019080519060200190610a50929190611396565b506001600484604051610a639190611ab1565b908152602001604051809103902060006101000a81548160ff021916908315150217905550600080815480929190610a9a90611ef8565b91905055508260016000805481526020019081526020016000209080519060200190610ac7929190611396565b507f277a1d10e49bd6b7733ce9bf56c9ffc900b2e686ba0e5276a82fdafd008bc16183604051610af79190611adf565b60405180910390a1505050565b6000815111610b48576040517f08c379a0000000000000000000000000000000000000000000000000000000008152600401610b3f90611bb6565b60405180910390fd5b600381604051610b589190611ab1565b908152602001604051809103902060000160009054906101000a900473ffffffffffffffffffffffffffffffffffffffff1673ffffffffffffffffffffffffffffffffffffffff163373ffffffffffffffffffffffffffffffffffffffff1614610bf7576040517f08c379a0000000000000000000000000000000000000000000000000000000008152600401610bee90611cb6565b60405180910390fd5b600381604051610c079190611ab1565b908152602001604051809103902060040160009054906101000a900460ff16610c65576040517f08c379a0000000000000000000000000000000000000000000000000000000008152600401610c5c90611b76565b60405180910390fd5b6000600382604051610c779190611ab1565b908152602001604051809103902060040160006101000a81548160ff02191690831515021790555050565b606060008211610ce7576040517f08c379a0000000000000000000000000000000000000000000000000000000008152600401610cde90611bf6565b60405180910390fd5b600160008381526020019081526020016000208054610d0590611ec6565b80601f0160208091040260200160405190810160405280929190818152602001828054610d3190611ec6565b8015610d7e5780601f10610d5357610100808354040283529160200191610d7e565b820191906000526020600020905b815481529060010190602001808311610d6157829003601f168201915b50505050509050919050565b6000815111610dce576040517f08c379a0000000000000000000000000000000000000000000000000000000008152600401610dc590611bb6565b60405180910390fd5b600381604051610dde9190611ab1565b908152602001604051809103902060000160009054906101000a900473ffffffffffffffffffffffffffffffffffffffff1673ffffffffffffffffffffffffffffffffffffffff163373ffffffffffffffffffffffffffffffffffffffff1614610e7d576040517f08c379a0000000000000000000000000000000000000000000000000000000008152600401610e7490611c96565b60405180910390fd5b600381604051610e8d9190611ab1565b908152602001604051809103902060040160009054906101000a900460ff1615610eec576040517f08c379a0000000000000000000000000000000000000000000000000000000008152600401610ee390611c76565b60405180910390fd5b6001600382604051610efe9190611ab1565b908152602001604051809103902060040160006101000a81548160ff02191690831515021790555050565b6000600260003373ffffffffffffffffffffffffffffffffffffffff1673ffffffffffffffffffffffffffffffffffffffff16815260200190815260200160002060000154905090565b60006060600080855111610fbc576040517f08c379a0000000000000000000000000000000000000000000000000000000008152600401610fb390611bb6565b60405180910390fd5b6000600386604051610fce9190611ab1565b90815260200160405180910390209050806006016000868152602001908152602001600020600001548160060160008781526020019081526020016000206002018260060160008881526020019081526020016000206001015481805461103490611ec6565b80601f016020809104026020016040519081016040528092919081815260200182805461106090611ec6565b80156110ad5780601f10611082576101008083540402835291602001916110ad565b820191906000526020600020905b81548152906001019060200180831161109057829003601f168201915b50505050509150935093509350509250925092565b60008054905090565b600080600060606000855111611116576040517f08c379a000000000000000000000000000000000000000000000000000000000815260040161110d90611bb6565b60405180910390fd5b60006003866040516111289190611ab1565b90815260200160405180910390209050806001015481600301548260040160009054906101000a900460ff168360050180805461116490611ec6565b80601f016020809104026020016040519081016040528092919081815260200182805461119090611ec6565b80156111dd5780601f106111b2576101008083540402835291602001916111dd565b820191906000526020600020905b8154815290600101906020018083116111c057829003601f168201915b505050505090509450945094509450509193509193565b6060600080831161123a576040517f08c379a000000000000000000000000000000000000000000000000000000000815260040161123190611bf6565b60405180910390fd5b600260003373ffffffffffffffffffffffffffffffffffffffff1673ffffffffffffffffffffffffffffffffffffffff16815260200190815260200160002060010160008481526020019081526020016000206003600260003373ffffffffffffffffffffffffffffffffffffffff1673ffffffffffffffffffffffffffffffffffffffff16815260200190815260200160002060010160008681526020019081526020016000206040516112ef9190611ac8565b90815260200160405180910390206002015481805461130d90611ec6565b80601f016020809104026020016040519081016040528092919081815260200182805461133990611ec6565b80156113865780601f1061135b57610100808354040283529160200191611386565b820191906000526020600020905b81548152906001019060200180831161136957829003601f168201915b5050505050915091509150915091565b8280546113a290611ec6565b90600052602060002090601f0160209004810192826113c4576000855561140b565b82601f106113dd57805160ff191683800117855561140b565b8280016001018555821561140b579182015b8281111561140a5782518255916020019190600101906113ef565b5b509050611418919061141c565b5090565b5b8082111561143557600081600090555060010161141d565b5090565b600061144c61144784611dac565b611d7b565b90508281526020810184848401111561146457600080fd5b61146f848285611e84565b509392505050565b600082601f83011261148857600080fd5b8135611498848260208601611439565b91505092915050565b6000813590506114b081611fdf565b92915050565b6000602082840312156114c857600080fd5b600082013567ffffffffffffffff8111156114e257600080fd5b6114ee84828501611477565b91505092915050565b6000806040838503121561150a57600080fd5b600083013567ffffffffffffffff81111561152457600080fd5b61153085828601611477565b925050602083013567ffffffffffffffff81111561154d57600080fd5b61155985828601611477565b9150509250929050565b6000806040838503121561157657600080fd5b600083013567ffffffffffffffff81111561159057600080fd5b61159c85828601611477565b92505060206115ad858286016114a1565b9150509250929050565b6000602082840312156115c957600080fd5b60006115d7848285016114a1565b91505092915050565b6115e981611e6e565b82525050565b60006115fa82611df1565b6116048185611dfc565b9350611614818560208601611e93565b61161d81611fce565b840191505092915050565b600061163382611df1565b61163d8185611e0d565b935061164d818560208601611e93565b80840191505092915050565b6000815461166681611ec6565b6116708186611e0d565b9450600182166000811461168b576001811461169c576116cf565b60ff198316865281860193506116cf565b6116a585611ddc565b60005b838110156116c7578154818901526001820191506020810190506116a8565b838801955050505b50505092915050565b60006116e5601b83611dfc565b91507f46756e642072616973696e6720616c726561647920636c6f73656400000000006000830152602082019050919050565b6000611725602b83611dfc565b91507f446f6e6174696f6e20616d6f756e742073686f756c642062652067726561746560008301527f72207468616e207a65726f0000000000000000000000000000000000000000006020830152604082019050919050565b600061178b602283611dfc565b91507f4964656e74696669636174696f6e2073686f756c64206e6f7420626520656d7060008301527f74790000000000000000000000000000000000000000000000000000000000006020830152604082019050919050565b60006117f1603883611dfc565b91507f546865726520697320616c726561647920612066756e642072616973696e672060008301527f776974682074686174206964656e74696669636174696f6e00000000000000006020830152604082019050919050565b6000611857602183611dfc565b91507f46756e642072616973652069642073686f756c64206e6f7420626520656d707460008301527f79000000000000000000000000000000000000000000000000000000000000006020830152604082019050919050565b60006118bd601c83611dfc565b91507f54686572652773206e6f2066756e647320746f207265747269657665000000006000830152602082019050919050565b60006118fd601583611dfc565b91507f46756e6472616973696e6720697320636c6f73656400000000000000000000006000830152602082019050919050565b600061193d602383611dfc565b91507f4f6e6c79207468652063726561746f722063616e20726574726965766520667560008301527f6e647300000000000000000000000000000000000000000000000000000000006020830152604082019050919050565b60006119a3601983611dfc565b91507f46756e642072616973696e6720616c7265616479206f70656e000000000000006000830152602082019050919050565b60006119e3602883611dfc565b91507f4f6e6c79207468652063726561746f722063616e206f70656e20612066756e6460008301527f2072616973696e670000000000000000000000000000000000000000000000006020830152604082019050919050565b6000611a49602983611dfc565b91507f4f6e6c79207468652063726561746f722063616e20636c6f736520612066756e60008301527f642072616973696e6700000000000000000000000000000000000000000000006020830152604082019050919050565b611aab81611e7a565b82525050565b6000611abd8284611628565b915081905092915050565b6000611ad48284611659565b915081905092915050565b60006020820190508181036000830152611af981846115ef565b905092915050565b60006040820190508181036000830152611b1b81856115ef565b9050611b2a6020830184611aa2565b9392505050565b60006060820190508181036000830152611b4b81866115ef565b9050611b5a6020830185611aa2565b8181036040830152611b6c81846115ef565b9050949350505050565b60006020820190508181036000830152611b8f816116d8565b9050919050565b60006020820190508181036000830152611baf81611718565b9050919050565b60006020820190508181036000830152611bcf8161177e565b9050919050565b60006020820190508181036000830152611bef816117e4565b9050919050565b60006020820190508181036000830152611c0f8161184a565b9050919050565b60006020820190508181036000830152611c2f816118b0565b9050919050565b60006020820190508181036000830152611c4f816118f0565b9050919050565b60006020820190508181036000830152611c6f81611930565b9050919050565b60006020820190508181036000830152611c8f81611996565b9050919050565b60006020820190508181036000830152611caf816119d6565b9050919050565b60006020820190508181036000830152611ccf81611a3c565b9050919050565b6000602082019050611ceb6000830184611aa2565b92915050565b6000606082019050611d066000830186611aa2565b8181036020830152611d1881856115ef565b9050611d276040830184611aa2565b949350505050565b6000608082019050611d446000830187611aa2565b611d516020830186611aa2565b611d5e60408301856115e0565b8181036060830152611d7081846115ef565b905095945050505050565b6000604051905081810181811067ffffffffffffffff82111715611da257611da1611f9f565b5b8060405250919050565b600067ffffffffffffffff821115611dc757611dc6611f9f565b5b601f19601f8301169050602081019050919050565b60008190508160005260206000209050919050565b600081519050919050565b600082825260208201905092915050565b600081905092915050565b6000611e2382611e7a565b9150611e2e83611e7a565b9250827fffffffffffffffffffffffffffffffffffffffffffffffffffffffffffffffff03821115611e6357611e62611f41565b5b828201905092915050565b60008115159050919050565b6000819050919050565b82818337600083830152505050565b60005b83811015611eb1578082015181840152602081019050611e96565b83811115611ec0576000848401525b50505050565b60006002820490506001821680611ede57607f821691505b60208210811415611ef257611ef1611f70565b5b50919050565b6000611f0382611e7a565b91507fffffffffffffffffffffffffffffffffffffffffffffffffffffffffffffffff821415611f3657611f35611f41565b5b600182019050919050565b7f4e487b7100000000000000000000000000000000000000000000000000000000600052601160045260246000fd5b7f4e487b7100000000000000000000000000000000000000000000000000000000600052602260045260246000fd5b7f4e487b7100000000000000000000000000000000000000000000000000000000600052604160045260246000fd5b6000601f19601f8301169050919050565b611fe881611e7a565b8114611ff357600080fd5b5056fea26469706673582212207eb66400928d401b5663f639f5fdf17c050c007ed1a165fcec0f6275ccaf22ff64736f6c63430008000033",
  "immutableReferences": {},
  "source": "// SPDX-License-Identifier: MIT\npragma solidity ^0.8.0;\n\ncontract CryptoBridge {\n    //STRUCTS\n    struct FundRaising {\n        address creator;\n        uint256 totalAmount;\n        uint256 amountToRetrieve;\n        uint256 donorCount;\n        bool isOpen;\n        string img;\n        mapping(uint256 => Donor) donors;\n    }\n\n    struct Donor {\n        uint256 donorId;\n        uint256 amount;\n        string message;\n    }\n\n    struct User {\n        uint256 fundraisingCount;\n        mapping(uint256 => string) fundraisings;\n    }\n\n    uint256 private amountoffundraisings;\n\n    //Mappings\n    mapping(uint256 => string) private fundRaisingsList;\n    mapping(address => User) private userFundraisings;\n    mapping(string => FundRaising) private fundraisings;\n    mapping(string => bool) private fundraisingExist;\n\n    //Events\n    event FundRaisingCreated(string identification);\n    event DonationReceived(uint256 indexed donorId, string identification, uint256 amount, string message);\n    event FundsRetrieved(address indexed retriever, string identification, uint256 amount);\n\n    //Functions\n    //Creates a fund raising associate to caster, is open by default.\n    function createFundRaising(string memory identification, string memory imgpath) public {\n        require(bytes(identification).length > 0, \"Identification should not be empty\");\n        require(fundraisingExist[identification] == false, \"There is already a fund raising with that identification\");\n\n        userFundraisings[msg.sender].fundraisingCount ++;\n        uint256 fundraisingCount = userFundraisings[msg.sender].fundraisingCount;\n        userFundraisings[msg.sender].fundraisings[fundraisingCount] = identification;\n\n        fundraisings[identification].creator = msg.sender;\n        fundraisings[identification].totalAmount = 0;\n        fundraisings[identification].amountToRetrieve = 0;\n        fundraisings[identification].donorCount = 0;\n        fundraisings[identification].isOpen = true;\n        fundraisings[identification].img = imgpath;\n        fundraisingExist[identification] = true;\n\n        amountoffundraisings++;\n        fundRaisingsList[amountoffundraisings] = identification;\n\n        emit FundRaisingCreated(identification);\n    }\n\n    //Opens the fund raising to enable it to receive donations\n    function openFundRaising(string memory identification) public  {\n        require(bytes(identification).length > 0, \"Identification should not be empty\");\n        require(msg.sender == fundraisings[identification].creator, \"Only the creator can open a fund raising\");\n        require(!fundraisings[identification].isOpen, \"Fund raising already open\");\n        fundraisings[identification].isOpen = true;\n    }\n\n    //Close the fund raising to disable it to receive donations. It can be reopened.\n    function closeFundRaising(string memory identification) public  {\n        require(bytes(identification).length > 0, \"Identification should not be empty\");\n        require(msg.sender == fundraisings[identification].creator, \"Only the creator can close a fund raising\");\n        require(fundraisings[identification].isOpen, \"Fund raising already closed\");\n        fundraisings[identification].isOpen = false;\n    }\n\n    //Donates to the fundraising [identification] an amount set in VALUE. \n    //In [message], a message can be left with the donation.\n    function donate(string memory identification, string memory message) public payable {\n        require(msg.value > 0, \"Donation amount should be greater than zero\");\n        require(bytes(identification).length > 0, \"Identification should not be empty\");\n        require(fundraisings[identification].isOpen, \"Fundraising is closed\");\n\n        FundRaising storage fundraising = fundraisings[identification];\n        uint256 donorId = fundraising.donorCount + 1;\n        fundraising.donors[donorId].donorId = donorId;\n        fundraising.donors[donorId].amount = msg.value;\n        fundraisings[identification].totalAmount += msg.value;\n        fundraisings[identification].amountToRetrieve += msg.value;\n        fundraising.donors[donorId].message = message;\n        fundraising.donorCount++;\n\n        emit DonationReceived(donorId, identification, msg.value, message);\n    }\n\n    //Returns the amount of fund raisings stored in the contract.\n    function getAmountOfFundRaisings() public view returns (uint256) {\n        return (amountoffundraisings);\n    }\n\n    //Returns the amount of fund raisings associated to my account.\n    function getAmountOfMyFundRaisings() public view returns (uint256) {\n        return (userFundraisings[msg.sender].fundraisingCount);\n    }\n\n    //From 1 to the amount of fund raisings associated to the account, \n    //returns the name of the fundraise and the amount of funds to retrieve\n    function getNameOfMyFundRaising(uint256 fundraisingid) public view returns (string memory, uint256) {\n        require(fundraisingid > 0, \"Fund raise id should not be empty\");\n        return (userFundraisings[msg.sender].fundraisings[fundraisingid], fundraisings[userFundraisings[msg.sender].fundraisings[fundraisingid]].amountToRetrieve);\n    }\n\n    //Return the string identification for a fund raising given an id.\n    function getNameOfFundRaising(uint256 fundraisingid) public view returns (string memory) {\n        require(fundraisingid > 0, \"Fund raise id should not be empty\");\n        return (fundRaisingsList[fundraisingid]);\n    }\n\n    //given the name of any fund raising, it returns the amount of donors, \n    //the total amount of tokens donated and if it's open\n    function getFundRaising(string memory identification) public view returns (uint256, uint256, bool, string memory) {\n        require(bytes(identification).length > 0, \"Identification should not be empty\");\n        FundRaising storage fundraising = fundraisings[identification];\n        return (fundraising.totalAmount,fundraising.donorCount,fundraising.isOpen, fundraising.img);\n    }\n\n    //Given a fund raising and a number of donor, it returns the amount donated and the message left\n    function getDonor(string memory identification, uint256 donorId) public view returns (uint256, string memory, uint256) {\n        require(bytes(identification).length > 0, \"Identification should not be empty\");\n\n        FundRaising storage fundraising = fundraisings[identification];\n        return (fundraising.donors[donorId].donorId, fundraising.donors[donorId].message, fundraising.donors[donorId].amount);\n    }\n\n    //Given the name of a fundraising (created by the account that queries,\n    //it withdraws the pending tokens stored in the contract. Balances are updated\n    function withdrawFunds(string memory identification) public {\n        require(bytes(identification).length > 0, \"Identification should not be empty\");\n        require(msg.sender == fundraisings[identification].creator, \"Only the creator can retrieve funds\");\n        require(fundraisings[identification].amountToRetrieve > 0 ,\"There's no funds to retrieve\");\n\n        uint256 amount = fundraisings[identification].amountToRetrieve;\n\n        payable(msg.sender).transfer(amount); \n        fundraisings[identification].amountToRetrieve = 0;\n\n        emit FundsRetrieved(msg.sender, identification, amount);       \n    }\n}",
  "sourcePath": "/home/fede/Documentos/Code/Solidity/Sin curso/CryptoBridge/cryptobridge/src/contracts/CryptoBridge.sol",
  "compiler": {
    "name": "solc",
    "version": "0.8.0+commit.c7dfd78e.Emscripten.clang"
  },
  "schemaVersion": "3.2.3",
  "updatedAt": "2024-03-24T00:12:58.449Z",
  "networkType": "ethereum",
  "devdoc": {
    "kind": "dev",
    "methods": {},
    "version": 1
  },
  "userdoc": {
    "kind": "user",
    "methods": {},
    "version": 1
  }
}